:060000000A128A1110280B
:10000800FE00030EF1000408F2000A08F3007F085E
:10001800F4000A128A153D2C0A128A111328F701D6
:1000280083160313B401B501B601B70183010A129F
:100038008A15992D8312031335088039BA003A08B6
:10004800BF003508BA003A07BB003B08C500B41F1B
:100058002E282F2830284514450803193428352818
:100068004428450A031D39283A2842280030B5009B
:100078000030B4000030B3000030B200B4174C2890
:100088000030B5000030B4000030B3000030B200DA
:1000980039088039BA003A08BF063908BA003A0761
:1000A800BB003B08C000B81F5A285B285C284014D6
:1000B80040080319602861287028400A031D652834
:1000C80066286E280030B9000030B8000030B7004C
:1000D8000030B600B81778280030B9000030B800F2
:1000E8000030B7000030B600400803197C287D288E
:1000F80082284508031D812882288B280030B500F6
:100108000030B4000030B3000030B2007E2B32085B
:10011800BA003A08F50038080A128A1541230A126B
:100128008A11760883120313CB007508CA004A089F
:10013800BA00BB01BC01BD013D08C4003C08C300B6
:100148003B08C2003A08C1004B08BA00BB01BC0119
:10015800BD013D08C9003C08C8003B08C7003A0873
:10016800C6003308BA003A08F50037080A128A159B
:1001780041230A128A11760883120313CB007508EB
:10018800CA004A08BA00BB01BC01BD013A08C10750
:100198003B0803110318013E0319D328C2073C0882
:1001A80003110318013E0319DA28C3073D08031198
:1001B8000318013E0319E128C4074B08BA00BB0124
:1001C800BC01BD013A08C6073B0803110318013EEC
:1001D8000319EF28C7073C0803110318013E031948
:1001E800F628C8073D0803110318013E0319FD2826
:1001F800C9073408BA003A08F50036080A128A1501
:1002080041230A128A11760883120313CB0075085A
:10021800CA004A08BA00BB01BC01BD013A08C107BF
:100228003B0803110318013E03191B29C2073C08A8
:1002380003110318013E03192229C3073D080311BE
:100248000318013E03192929C4074B08BA00BB014A
:10025800BC01BD013A08C6073B0803110318013E5B
:1002680003193729C7073C0803110318013E03196E
:100278003E29C8073D0803110318013E0319452903
:10028800C9070830BA000310C10DC20DC30DC40D53
:10029800BA0B47293308BA003A08F50036080A129B
:1002A8008A1541230A128A11760883120313CB0098
:1002B8007508CA004A08BA004B08BB00BC01BD015A
:1002C8003A08C1073B0803110318013E03196D29B9
:1002D800C2073C0803110318013E03197429C30718
:1002E8003D0803110318013E03197B29C40732088E
:1002F800BA003A08F50037080A128A1541230A128B
:100308008A11760883120313CB007508CA004A08BD
:10031800BA004B08BB00BC01BD013A08C1073B0845
:1003280003110318013E03199A29C2073C08031157
:100338000318013E0319A129C3073D080311031837
:10034800013E0319A829C4070830BA000310C10DDB
:10035800C20DC30DC40DBA0BAA293208BA003A0857
:10036800F50036080A128A1541230A128A117608FE
:1003780083120313CB007508CA004A08BA004B0859
:10038800BB00BC01BD013A08C1073B0803110318B3
:10039800013E0319D029C2073C0803110318013E86
:1003A8000319D729C3073D0803110318013E031990
:1003B800DE29C4073308BA003A08F50038080A12DB
:1003C8008A1541230A128A11760883120313CB0077
:1003D8007508CA004A08BA004B08BB00BC01BD0139
:1003E8003A08C6073B0803110318013E0319FD2903
:1003F800C7073C0803110318013E0319042AC8075C
:100408003D0803110318013E03190B2AC9073408D4
:10041800BA003A08F50037080A128A1541230A1269
:100428008A11760883120313CB007508CA004A089C
:10043800BA004B08BB00BC01BD013A08C6073B081F
:1004480003110318013E03192A2AC7073C080311A0
:100458000318013E0319312AC8073D080311031880
:10046800013E0319382AC9073408BA003A08F500CA
:1004780038080A128A1541230A128A11760883124B
:100488000313CB007508CA004A08BA004B08BB0022
:10049800BC01BD0108300310BA0DBB0DBC0DBD0D6C
:1004A800FF3E031D4F2A3A08C6073B0803110318ED
:1004B800013E0319602AC7073C0803110318013ECF
:1004C8000319672AC8073D0803110318013E0319D9
:1004D8006E2AC9074108BA004208BB004308BC009D
:1004E8004408BD0018300310BD0CBC0CBB0CBA0C82
:1004F800FF3E031D772A3A08C6073B080311031875
:10050800013E0319882AC7073C0803110318013E56
:1005180003198F2AC8073D0803110318013E031960
:10052800962AC9070830BA000310C10DC20DC30DC1
:10053800C40DBA0B982A45084007BA00BB01BB0D89
:100548003A08823ECA003B080318013EFF3ECB0032
:10055800CA2A0130BA000310C60DC70DC80DC90D4F
:10056800BA0BAF2AC41FB92ABA2ABB2A46140130CB
:10057800BA000310C10DC20DC30DC40DBA0BBD2ABC
:10058800FF30CA070318CB0AFF30CB07C81FCD2A94
:10059800CE2AAD2AC001C41FD22AD32AEF2AFF309F
:1005A8004105BA00FF304205BB00FF304305BC00DF
:1005B8007F304405BD003D083C043B043A04031960
:1005C800E62AE72AEA2AC001C00AEF2A461CED2AD1
:1005D800EE2AEF2AE72A40080319F32AF42A252BE2
:1005E8000130C607003003180130C7070030031870
:1005F8000130C807003003180130C907491C052B12
:10060800062B252B4608BA004708BB004808BC0043
:100618004908BD000130BE003D0DBD0CBC0CBB0C33
:10062800BA0CBE0B102B3D08C9003C08C8003B089B
:10063800C7003A08C6000130CA070318CB0A0030C1
:10064800CB074B08803AFF0080307F02031D2E2B1A
:10065800FF304A02031C312B322B3D2B7F30831293
:100668000313C9008030C8000030C7000030C6003E
:10067800722B831203134B08803AFF0080307F02ED
:10068800031D482B01304A0203184B2B4C2B582BC7
:10069800003083120313C9000030C8000030C700BF
:1006A8000030C600BF01722B831203134A08BA0038
:1006B8003A08C500FF30C605FF30C7057F30C805BA
:1006C8000030C905451C692B6A2B6B2BC8174508D8
:1006D800BA0003103A0CBB003B08C9003F08BA0037
:1006E8003A08C9044908B5004808B4004708B300E7
:1006F8004608B20008008312031323088039A800B3
:100708002808B0002308A8002807A9002908B20073
:10071800A21F8F2B902B912B321432080319952B83
:10072800962BA62B320A031D9A2B9B2BA32B00304A
:10073800A3000030A2000030A1000030A000A217E2
:10074800A301AE2B0030A3000030A2000030A100AE
:100758000030A00027088039A8002808B100310817
:1007680030060319B82BB92BBA2B30172708A80065
:100778002807A9002908B100A61FC32BC42BC52B25
:10078800311431080319C92BCA2BDA2B310A031D7E
:10079800CE2BCF2BD72B0030A7000030A60000307F
:1007A800A5000030A400A617A701E22B0030A7007F
:1007B8000030A6000030A5000030A4003208310245
:1007C8000318E72BE82B2C2C301FEB2BEC2BF02BF2
:1007D8008030A8002808B0063208A8002808B3000E
:1007E8003108A8002808B2003308A8002808B1007A
:1007F8002008A8002808B3002408A8002808A0009A
:100808003308A8002808A4002108A8002808B30075
:100818002508A8002808A1003308A8002808A50072
:100828002208A8002808B3002608A8002808A20063
:100838003308A8002808A6002308A8002808B30041
:100848002708A8002808A3003308A8002808A7003C
:10085800B3013108A800A9012908AB003208280211
:10086800AA00031CAB032B08803AFF0080307F02EC
:10087800031D402C1A302A02031C432C442C812CC3
:10088800831203132308220421042004031D4D2C82
:100898004F2C0130502C0030A8002808B30000303D
:1008A800A3000030A2000030A1000030A0003108F1
:1008B800A8002808B200892C331C632C642C6D2CEA
:1008C8003308A8000310280C0138A9002908B30030
:1008D8006F2C0310B30C201C722C732C742CB317C0
:1008E8000130A800230DA30CA20CA10CA00CA80B8E
:1008F800762C0130A8002808B207831203133108A8
:100908003202031C882C892C602C301B8C2C8D2CDB
:10091800D82C3208031D912C922C9B2C0030A3005C
:100928000030A2000030A1000030A000062E2408EC
:10093800A007250803110318013E0319A42CA107D9
:10094800260803110318013E0319AB2CA207270838
:1009580003110318013E0319B22CA307231CB52C5D
:10096800B62C8C2D331CB92CBA2CC32C3308A800F8
:100978000310280C0138A9002908B300C52C03105E
:10098800B30C201CC82CC92CCA2CB3170130A800E2
:10099800230DA30CA20CA10CA00CA80BCC2C01308D
:1009A800A8002808B2078C2D2308803AFF002708E2
:1009B800803A7F02031DEA2C26082202031DEA2C36
:1009C80025082102031DEA2C240820020318ED2C17
:1009D800EE2C462DFF30A800FF30A900FF30AA00FA
:1009E800FF30AB002408AC002508AD002608AE0097
:1009F8002708AF002008AC022108031C210F052D91
:100A0800062DAD022208031C220F0B2D0C2DAE0261
:100A18002308031C230F112D122DAF022C08A80741
:100A28002D0803182D0F192D1A2DA9072E080318A4
:100A38002E0F1F2D202DAA072F0803182F0AAB07EA
:100A48002B08A3002A08A2002908A1002808A00052
:100A58008030A8002808B006B309B30A3308031D7C
:100A6800362D372D542D0130A007003003180130E2
:100A7800A107003003180130A20700300318013025
:100A8800A307542D2408A0022508031C250FA10242
:100A98002608031C260FA2022708031C270FA302FF
:100AA8002308220421042004031D5B2D5C2D882DBE
:100AB8003308031D602D612D882D0030A300003000
:100AC800A2000030A1000030A000062E0130A800CE
:100AD8000310A00DA10DA20DA30DA80B6C2DB31F23
:100AE800762D772D782D2014331C7B2D7C2D7F2D92
:100AF8000314B30D812D0310B30D32080319852D8E
:100B0800862D882D0130B202A21F8B2D8C2D6A2DC7
:100B1800B101B31F902D912D9F2D33087F390319F3
:100B2800962D972D9A2DB101B10A9F2D201C9D2D30
:100B38009E2D9F2D972D31080319A32DA42DD82D57
:100B48000130A007003003180130A1070030031856
:100B58000130A207003003180130A307231CB52D6C
:100B6800B62DD82D2008A8002108A9002208AA001F
:100B78002308AB000130AC002B0DAB0CAA0CA90C60
:100B8800A80CAC0BC02D2B08A3002A08A20029082A
:100B9800A1002808A000320A0319D32DD42DD82D7E
:100BA8000130A8002808B207320A0319DC2DDD2D10
:100BB800E22D3208031DE12DE22DF02D0030A300B7
:100BC8000030A2000030A1000030A0003208031D50
:100BD800EE2DEF2DF02DB001321CF32DF42DF62D56
:100BE800A217FA2D7F30A8002808A2053208A8000D
:100BF8000310280CA9002908A300B01F042E052EF5
:100C0800062EA3170800831203135B088039DC0043
:100C18005C08E5005B08DC005C07DD005D08EC00B3
:100C2800DA1F172E182E192E6C146C0803191D2E96
:100C38001E2E2E2E6C0A031D222E232E2B2E003044
:100C4800DB000030DA000030D9000030D800DA17B5
:100C5800DB01362E0030DB000030DA000030D9002E
:100C68000030D80057088039DC005C08E5065708D2
:100C7800DC005C07DD005D08ED00D61F442E452E24
:100C8800462E6D146D0803194A2E4B2E5B2E6D0AE5
:100C9800031D4F2E502E582E0030D7000030D6009E
:100CA8000030D5000030D400D617D701632E0030AD
:100CB800D7000030D6000030D5000030D4005708E7
:100CC800560455045404031D6A2E6B2E842E0030DE
:100CD800DB000030DA000030D9000030D800803066
:100CE800DA047F30DB046508DC005C08DB045B08A1
:100CF800D7005A08D6005908D5005808D400E32F61
:100D08006C08031D882E892E922E0030D7000030E3
:100D1800D6000030D5000030D400E32F6C08DC008A
:100D2800DD015D08DF006D085C02DE00031CDF03E7
:100D38005E087F3EE6005F080318013E003EE700BC
:100D48005B08E4005A08E3005908E2005808E1008B
:100D58000030DB000030DA000030D9000030D80065
:100D68000030EB000030EA000030E9000030E80015
:100D7800ED01082F6D080319C22EC32EE32E013092
:100D8800DC000310E10DE20DE30DE40DDC0BC52ED4
:100D98000130DC000310D80DD90DDA0DDB0DDC0BAA
:100DA800CE2EEB1FD82ED92EDA2E58140130DC00A7
:100DB8000310E80DE90DEA0DEB0DDC0BDC2E5708EE
:100DC8006402031DF12E56086302031DF12E550817
:100DD8006202031DF12E54086102031CF42EF52E45
:100DE800042F6B175408E1025508031C550FE20243
:100DF8005608031C560FE3025708031C570FE4025A
:100E08000130DC005C08ED071A306D02031C0D2F61
:100E18000E2FBE2E64086304620461040319152FA3
:100E2800162F352F6814352F0130DC000310D80D2C
:100E3800D90DDA0DDB0DDC0B1A2FEB1F242F252F14
:100E4800262F58140130DC000310E80DE90DEA0DD7
:100E5800EB0DDC0B282FFF30E6070318E70AFF30FD
:100E6800E707DA1F382F392F182FED01EB1F3D2F19
:100E78003E2F5A2FFF306805DC00FF306905DD0082
:100E8800FF306A05DE007F306B05DF005F085E0417
:100E98005D045C040319512F522F552FED01ED0A03
:100EA8005A2F581C582F592F5A2F522F6D08031993
:100EB8005E2F5F2F902F0130D807003003180130C4
:100EC800D907003003180130DA0700300318013061
:100ED800DB075B1C702F712F902F5808DC00590816
:100EE800DD005A08DE005B08DF000130E0005F0D1E
:100EF800DF0CDE0CDD0CDC0CE00B7B2F5F08DB006D
:100F08005E08DA005D08D9005C08D8000130E60701
:100F18000318E70A0030E7076708803AFF008030C7
:100F28007F02031D992FFF306602031C9C2F9D2F03
:100F3800AB2FFF3083120313E6000030E7000030C8
:100F4800DB000030DA000030D9000030D80083120E
:100F580003136708803AFF0080307F02031DB62F15
:100F6800013066020318B92FBA2FC72F8312031353
:100F7800E601E7010030DB000030DA000030D9007C
:100F88000030D800E501831203136608DC005C0812
:100F9800EC006C1CD02FD12FD32FDA17D72F7F302E
:100FA800DC005C08DA056C08DC0003105C0CDD0072
:100FB8005D08DB006508DC005C08DB047B2E0800AC
:100FC80007308A000408840A82070034FC3460343D
:100FD800DA34F2346634B634BE34E034FE34F634EF
:0C0FE800EE343E349C347A349E348E3457
:1015EC00803083120313CF065308A3005208A200C5
:1015FC005108A1005008A0004F08A7004E08A600F3
:10160C004D08A5004C08A4000A128A117F230A1267
:10161C008A15831203132308CF002208CE00210859
:10162C00CD002008CC000800F501F601831203134D
:10163C00201C212B222B282B2208F5070318F60A35
:10164C002308F60701300310A20DA30DFF3E031D66
:10165C00292B01300310A10CA00CFF3E031D302BD5
:10166C0020082104031D3B2B3C2B1C2B7608A100CE
:10167C007508A000080083120313A600A201A301A1
:10168C007508A000A1012008A4002108A500261CB3
:10169C00502B512B572B2408A2070318A30A2508FB
:1016AC00A30701300310A40DA50DFF3E031D582BFD
:1016BC000310A60C2608031D642B652B4D2B230849
:1016CC00F6002208F5000800033083160317880083
:1016DC008901831603130F088F3940388F000F14BC
:1016EC00033085008601870188018312031385016D
:1016FC00860187018801831603138112811101155C
:10170C0081140114FC308312031381003F309F05B8
:10171C00831603131F129F16C330831203139F05E6
:10172C00831603139F13831203131F140330F50046
:10173C00F50B9E2B831203130C13831603130C1738
:10174C000B178B170B118B16080003108316031342
:10175C00220D230DA400240883120313EF006F083D
:10176C00031DB92BBA2BC52B003083160313A30012
:10177C000030A2000030A1000030A0003C2C8316E9
:10178C0003132008A4002108A5002208A6002308A2
:10179C00A7001F300310A70CA60CA50CA40CFF3E31
:1017AC00031DD02B2408A800280883120313EE0075
:1017BC0083160313A217FF30A005FF30A105FF30DD
:1017CC00A2050030A305963083120313EF02EF1F1E
:1017DC00F02BF12B0F2C6F08803A973E0318F72B48
:1017EC00F82BF92BBA2B0130031083160313A30C1F
:1017FC00A20CA10CA00CFF3E031DFA2B0130A4007F
:10180C00240883120313EF07031D0D2C0E2CF92B48
:10181C002A2C20306F02031C142C152C252CBA2BCF
:10182C00013083160313A4000310A00DA10DA20D0B
:10183C00A30DA40B1A2C013083120313EF026F08B3
:10184C00031D292C2A2C162C6E0803192E2C2F2C38
:10185C003C2C83160313A009A109A209A309A00A11
:10186C000319A10A0319A20A0319A30A0800831277
:10187C0003130C1F422C432C612C1F0CF000700C1A
:10188C000F39003A031D4B2C4C2C4F2C1E08860094
:10189C005E2C1F0CF000700C0F39013A031D572CF5
:1018AC00582C5E2C1E08F000700883160313B4002D
:1018BC0083120C13D22C0B1D642C652CD22C88019A
:1018CC001030831603133502031C6D2C6E2C6F2CF9
:1018DC00B50110303602031C742C752C762CB60115
:1018EC0010303702031C7B2C7C2C7D2CB70177032A
:1018FC00031D812C822C932C831203130815831641
:10190C0003133708013E84000A128A11E4270A12D5
:10191C008A15831203138700CA2C02307706031D25
:10192C00982C992CAA2C8312031388148316031356
:10193C003608013E84000A128A11E4270A128A151D
:10194C00831203138700CA2C03307706031DAF2CB8
:10195C00B02CC22C831203130814831603133508FE
:10196C00013E84000A128A11E4270A128A15831296
:10197C00031387000714CA2C04307706031DC72CE9
:10198C00C82CCA2CF701CA2C0130F0007008F707DC
:10199C000B11FC30831281007408FF0073088A005D
:1019AC0072088400710E8300FE0E7E0E09008312F5
:1019BC000313AC002C080319E42CE52CF92CA71FFD
:1019CC00E82CE92CF92C2409AE002509AF002609D6
:1019DC00B0002709B100AE0A0319AF0A0319B00A07
:1019EC000319B10A012D2708B1002608B0002508FB
:1019FC00AF002408AE002708260425042404031D88
:101A0C00082D092D122D0030A7000030A600003043
:101A1C00A5000030A400982D9630A8002808AD0031
:101A2C00242D0130A8002808AD0701300310B10C9B
:101A3C00B00CAF0CAE0CFF3E031D1C2DFE3031055F
:101A4C00031D292D2A2D172D462D0130A8002808FD
:101A5C00AD070130AE07003003180130AF0700307E
:101A6C0003180130B007003003180130B107013002
:101A7C000310B10CB00CAF0CAE0CFF3E031D3E2D91
:101A8C00FF303105031D4B2D4C2D2B2D582D0130C6
:101A9C00AD020130A8000310AE0DAF0DB00DB10DAD
:101AAC00A80B512DB01B5B2D5C2D622D02302D022D
:101ABC000318612D622D4D2D2D18652D662D6E2D63
:101ACC00FF30AE05FF30AF057F30B005FF30B105FC
:101ADC000310AD0C2D08A800A901AA01AB01183008
:101AEC000310A80DA90DAA0DAB0DFF3E031D762DFD
:101AFC002808AE042908AF042A08B0042B08B10446
:101B0C002C0803198A2D8B2D902DA71F8E2D8F2D10
:101B1C00902DB1173108A7003008A6002F08A5009A
:101B2C002E08A40008000A128A156A230A128A15C4
:101B3C00831203139F18A32DA42DD12D1F0C8316D4
:101B4C000313A900290C0F39003A031DAE2DAF2D3C
:101B5C00B62D831203131F08C33904389F00C72DF9
:101B6C00831203131F0C83160313A900290C0F39BE
:101B7C00013A031DC22DC32DC72DC330831203138D
:101B8C009F05023083160313A900A90BCB2D00006F
:101B9C00831203139F14831603133408A900AA019C
:101BAC00AB01AC012C0883120313A700831603139B
:101BBC002B0883120313A600831603132A0883121F
:101BCC000313A50083160313290883120313A4001F
:101BDC0001300A128A15DD240A128A1583120313A6
:101BEC002708B9002608B8002508B7002408B60055
:101BFC003F30B500FA30B400F830B3003830B200E2
:101C0C000A128A111E200A128A1583120313350830
:101C1C00DB003408DA003308D9003208D80042302F
:101C2C00D700C830D6000030D5000030D4000A12DE
:101C3C008A1107260A128A15831203135708831672
:101C4C000313A30083120313560883160313A20075
:101C5C0083120313550883160313A1008312031375
:101C6C00540883160313A0000A128A15AB230A1218
:101C7C008A15831603132008AD002D08B50034080F
:101C8C00A900AA01AB01AC012C0883120313A70015
:101C9C00831603132B0883120313A6008316031356
:101CAC002A0883120313A500831603132908831231
:101CBC000313A40001300A128A15DD240A128A15B6
:101CCC00831203132708B9002608B8002508B700AB
:101CDC002408B6003F30B500FA30B400F830B30039
:101CEC003830B2000A128A111E200A128A15831289
:101CFC0003133508D3003408D2003308D10032085E
:101D0C00D0006430A2000030A30083160313350802
:101D1C00AD00AE012D0883120313A000831603132C
:101D2C002E0883120313A1000A128A151A230A1211
:101D3C008A15831203132008A4002108A500003083
:101D4C00A51BFF30A600A70001300A128A15DD245E
:101D5C000A128A15831203132708CF002608CE0017
:101D6C002508CD002408CC000A128A15F6220A1286
:101D7C008A15831203134F08DB004E08DA004D0856
:101D8C00D9004C08D8004130D7002030D6000030A4
:101D9C00D5000030D4000A128A1107260A128A15BF
:101DAC0083120313570883160313A3008312031320
:101DBC00560883160313A2008312031355088316C7
:101DCC000313A10083120313540883160313A000FA
:101DDC000A128A15AB230A128A15831603132008DC
:101DEC00AF002F08B6003408A900AA01AB01AC0162
:101DFC002C0883120313A700831603132B088312DA
:101E0C000313A600831603132A0883120313A500D9
:101E1C0083160313290883120313A40001300A123A
:101E2C008A15DD240A128A15831203132708B900B8
:101E3C002608B8002508B7002408B6003F30B500C6
:101E4C00FA30B400F830B3003830B2000A128A11FC
:101E5C001E200A128A15831203133508D300340886
:101E6C00D2003308D1003208D0006430A200003018
:101E7C00A300831603133508AD00AE012D088312A1
:101E8C000313A000831603132E0883120313A1005F
:101E9C000A128A151A230A128A15831203132008B0
:101EAC00A4002108A5000030A51BFF30A600A70048
:101EBC0001300A128A15DD240A128A1583120313C3
:101ECC002708CF002608CE002508CD002408CC001A
:101EDC000A128A15F6220A128A15831203134F0866
:101EEC0083160313B300831203134E0883160313D4
:101EFC00B200831203134D0883160313B10083122F
:101F0C0003134C0883160313B00033088312031316
:101F1C00D30083160313320883120313D2008316E3
:101F2C000313310883120313D100831603133008F3
:101F3C0083120313D0000A30A2000030A3008316D2
:101F4C0003133608A900AA01290883120313A00061
:101F5C00831603132A0883120313A1000A128A158D
:101F6C001A230A128A15831203132008A4002108CD
:101F7C00A5000030A51BFF30A600A70001300A12F7
:101F8C008A15DD240A128A15831203132708CF0041
:101F9C002608CE002508CD002408CC000A128A158C
:101FAC00F6220A128A15831203134F0883160313A1
:101FBC00A300831203134E0883160313A20083128B
:101FCC0003134D0883160313A100831203134C084B
:101FDC0083160313A0000A128A15AB230A128A1562
:101FEC00831603132008AB002B08B7009E2D0A1292
:041FFC008A1110280E
:08400000FF3FFF3FFF3FFF3FC0
:04400E00D420FF3F7C
:00000001FF
