:060000000A128A110C280F
:10000800FE00030EF1000A08F2000A128A11852880
:100018000A128A110F28F601F701F80183010A1262
:100028008A11BA288316031789012530831603130A
:1000380085008801831203138801831603130F08B0
:100048008F3940388F000F140230F5004530F40026
:10005800A930F300F30B2E28F40B2E28F50B2E28CD
:10006800352883120313051C3A283B2865280430D9
:100078008316031788001030831603138700831232
:10008800031387013F309F05831603131F129F1226
:10009800831203131F08C33908389F0083160313FC
:1000A8009F13831203131F140330F300F30B5A2812
:1000B800831203130C13831603130C170B178B17D8
:1000C80084288316031788011830831603138700C2
:1000D8008312031387011408F039043894001412AA
:1000E8009416831603131417941306148614811395
:1000F80003309500033096008B150B100B178B17E8
:10010800080083120313051C8A288B289C280C1FBF
:100118008E288F28B3281F0CF000700C0F39023A74
:10012800031D972898289A281E0888000C13B328BE
:1001380005189F28A028B3280B1CA328A428B32897
:100148000618A728A828AC280130F00070088807EE
:100158008618AF28B028B228013088020B10720820
:100168008A00710E8300FE0E7E0E09000A128A11A3
:1001780016200A128A11831203139F18C428C5284F
:0C018800BF289F14BF280A128A110C28FF
:08400000FF3FFF3FFF3FFF3FC0
:04400E00D420FF3F7C
:00000001FF
