:060000000A128A110C280F
:10000800FE00030EF1000A08F2000A128A11912874
:100018000A128A110F28F50183010A128A11612830
:1000280083160317890104308800043083160313EC
:100038008500831203138501831603138801831235
:1000480003138801103083160313870083120313E8
:100058008701831603130F088F3940388F000F1458
:10006800F0308312031394051412941683160313A5
:100078001417941775088312031393003F309F05D4
:10008800831603131F129F12831203131F08C33909
:1000980008389F00831603139F13831203131F143A
:1000A8000330F300F30B5628831203130C13831643
:1000B80003130C170B178B1708000A128A11142048
:1000C8000A128A11831203139F186B286C286D2853
:1000D8009F147508930083160313141C742875283D
:1000E8006F288312031385175330F400F40B7A2812
:1000F80083120313851383160313141C842885287D
:100108007F2883120313130888005330F400F40B7C
:100118008B2866280A128A110C28831203130C1FD5
:1001280096289728A5281F0CF000700C0F39023A62
:10013800031D9F28A028A4281E08F0007008F500B9
:100148000C1372088A00710E8300FE0E7E0E0900E1
:08400000FF3FFF3FFF3FFF3FC0
:04400E00D420FF3F7C
:00000001FF
