:060000000A128A110C280F
:10000800FE00030EF1000A08F2000A128A15B32C4A
:100018000A128A110F2883160313B501B601B70116
:10002800B801B901BA01BB01BC01BD0183010A12C3
:100038008A15242D8312031343088039C800480801
:10004800CD004308C8004807C9004908D300C21FAB
:100058002E282F28302853145308031934283528FC
:100068004428530A031D39283A2842280030C3007F
:100078000030C2000030C1000030C000C2174C2858
:100088000030C3000030C2000030C1000030C000A2
:1000980047088039C8004808CD064708C8004807FF
:1000A800C9004908D200C61F5A285B285C28521488
:1000B80052080319602861287028520A031D652810
:1000C80066286E280030C7000030C6000030C50022
:1000D8000030C400C61778280030C7000030C600BA
:1000E8000030C5000030C400520803197C287D2860
:1000F80082285308031D812882288B280030C300DA
:100108000030C2000030C1000030C0007E2B400823
:10011800C8004808F30046080A128A158A240A12F9
:100128008A11740883120313D9007308D800580879
:10013800C800C901CA01CB014B08D1004A08D00048
:100148004908CF004808CE005908C800C901CA01AB
:10015800CB014B08D7004A08D6004908D500480803
:10016800D4004108C8004808F30045080A128A1557
:100178008A240A128A11740883120313D900730897
:10018800D8005808C800C901CA01CB014808CE07E1
:10019800490803110318013E0319D328CF074A0859
:1001A80003110318013E0319DA28D0074B0803117D
:1001B8000318013E0319E128D1075908C800C901ED
:1001C800CA01CB014808D407490803110318013EA6
:1001D8000319EF28D5074A0803110318013E03192C
:1001E800F628D6074B0803110318013E0319FD280A
:1001F800D7074208C8004808F30044080A128A15BD
:100208008A240A128A11740883120313D900730806
:10021800D8005808C800C901CA01CB014808CE0750
:10022800490803110318013E03191B29CF074A087F
:1002380003110318013E03192229D0074B080311A3
:100248000318013E03192929D1075908C800C90113
:10025800CA01CB014808D407490803110318013E15
:1002680003193729D5074A0803110318013E031952
:100278003E29D6074B0803110318013E03194529E7
:10028800D7070830C8000310CE0DCF0DD00DD10D03
:10029800C80B47294108C8004808F30044080A1257
:1002A8008A158A240A128A11740883120313D90042
:1002B8007308D8005808C8005908C900CA01CB01FA
:1002C8004808CE07490803110318013E03196D2990
:1002D800CF074A0803110318013E03197429D007F0
:1002E8004B0803110318013E03197B29D107400865
:1002F800C8004808F30045080A128A158A240A1219
:100308008A11740883120313D9007308D800580897
:10031800C8005908C900CA01CB014808CE074908D6
:1003280003110318013E03199A29CF074A0803113C
:100338000318013E0319A129D0074B08031103181C
:10034800013E0319A829D1070830C8000310CE0DB3
:10035800CF0DD00DD10DC80BAA294008C8004808F8
:10036800F30044080A128A158A240A128A117408AA
:1003780083120313D9007308D8005808C800590815
:10038800C900CA01CB014808CE0749080311031860
:10039800013E0319D029CF074A0803110318013E6B
:1003A8000319D729D0074B0803110318013E031975
:1003B800DE29D1074108C8004808F30046080A1298
:1003C8008A158A240A128A11740883120313D90021
:1003D8007308D8005808C8005908C900CA01CB01D9
:1003E8004808D407490803110318013E0319FD29D9
:1003F800D5074A0803110318013E0319042AD60732
:100408004B0803110318013E03190B2AD7074208AA
:10041800C8004808F30045080A128A158A240A12F7
:100428008A11740883120313D9007308D800580876
:10043800C8005908C900CA01CB014808D4074908AF
:1004480003110318013E03192A2AD5074A08031184
:100458000318013E0319312AD6074B080311031864
:10046800013E0319382AD7074208C8004808F30094
:1004780046080A128A158A240A128A1174088312F5
:100488000313D9007308D8005808C8005908C900D0
:10049800CA01CB0108300310C80DC90DCA0DCB0D18
:1004A800FF3E031D4F2A4808D407490803110318C3
:1004B800013E0319602AD5074A0803110318013EB3
:1004C8000319672AD6074B0803110318013E0319BD
:1004D8006E2AD7074E08C8004F08C9005008CA003E
:1004E8005108CB0018300310CB0CCA0CC90CC80C2F
:1004F800FF3E031D772A4808D4074908031103184B
:10050800013E0319882AD5074A0803110318013E3A
:1005180003198F2AD6074B0803110318013E031944
:10052800962AD7070830C8000310CE0DCF0DD00D7E
:10053800D10DC80B982A53085207C800C901C90D24
:100548004808823ED80049080318013EFF3ED900FA
:10055800CA2A0130C8000310D40DD50DD60DD70D09
:10056800C80BAF2AD11FB92ABA2ABB2A54140130A2
:10057800C8000310CE0DCF0DD00DD10DC80BBD2A6C
:10058800FF30D8070318D90AFF30D907D61FCD2A5C
:10059800CE2AAD2AD201D11FD22AD32AEF2AFF3080
:1005A8004E05C800FF304F05C900FF305005CA008E
:1005B8007F305105CB004B084A044904480403190D
:1005C800E62AE72AEA2AD201D20AEF2A541CED2A9F
:1005D800EE2AEF2AE72A52080319F32AF42A252BD0
:1005E8000130D407003003180130D5070030031854
:1005F8000130D607003003180130D707571C052BE8
:10060800062B252B5408C8005508C9005608CA00EF
:100618005708CB000130CC004B0DCB0CCA0CC90CD1
:10062800C80CCC0B102B4B08D7004A08D600490839
:10063800D5004808D4000130D8070318D90A00307B
:10064800D9075908803AFF0080307F02031D2E2BFE
:10065800FF305802031C312B322B3D2B7F30831285
:100668000313D7008030D6000030D5000030D40006
:10067800722B831203135908803AFF0080307F02DF
:10068800031D482B0130580203184B2B4C2B582BB9
:10069800003083120313D7000030D6000030D50095
:1006A8000030D400CD01722B831203135808C80000
:1006B8004808D300FF30D405FF30D5057F30D60574
:1006C8000030D705531C692B6A2B6B2BD6175308A0
:1006D800C8000310480CC9004908D7004D08C800D5
:1006E8004808D7045708C3005608C2005508C10077
:1006F8005408C0000800831203135D088039E20023
:100708006208EA005D08E2006207E3006308EC00A3
:10071800DC1F8F2B902B912B6C146C080319952BD5
:10072800962BA62B6C0A031D9A2B9B2BA32B003010
:10073800DD000030DC000030DB000030DA00DC17C0
:10074800DD01AE2B0030DD000030DC000030DB00C6
:100758000030DA0061088039E2006208EB006B08BB
:100768006A060319B82BB92BBA2B6A176108E2007D
:100778006207E3006308EB00E01FC32BC42BC52B03
:100788006B146B080319C92BCA2BDA2B6B0A031DD0
:10079800CE2BCF2BD72B0030E1000030E00000300B
:1007A800DF000030DE00E017E101E22B0030E1005D
:1007B8000030E0000030DF000030DE006C086B0223
:1007C8000318E72BE82B2C2C6A1FEB2BEC2BF02BB8
:1007D8008030E2006208EA066C08E2006208ED0078
:1007E8006B08E2006208EC006D08E2006208EB00AA
:1007F8005A08E2006208ED005E08E2006208DA00CA
:100808006D08E2006208DE005B08E2006208ED00A5
:100818005F08E2006208DB006D08E2006208DF00A2
:100828005C08E2006208ED006008E2006208DC0093
:100838006D08E2006208E0005D08E2006208ED0071
:100848006108E2006208DD006D08E2006208E1006C
:10085800ED016B08E200E3016308E5006C08620241
:10086800E400031CE5036508803AFF0080307F023E
:10087800031D402C1A306402031C432C442C812C89
:10088800831203135D085C045B045A04031D4D2C9A
:100898004F2C0130502C0030E2006208ED0000308F
:1008A800DD000030DC000030DB000030DA006B08CF
:1008B800E2006208EC00892C6D1C632C642C6D2C02
:1008C8006D08E2000310620C0138E3006308ED00D4
:1008D8006F2C0310ED0C5A1C722C732C742CED1712
:1008E8000130E2005D0DDD0CDC0CDB0CDA0CE20BF8
:1008F800762C0130E2006208EC07831203136B08C0
:100908006C02031C882C892C602C6A1B8C2C8D2C67
:10091800D82C6C08031D912C922C9B2C0030DD00E8
:100928000030DC000030DB000030DA00062E5E0804
:10093800DA075F0803110318013E0319A42CDB072B
:10094800600803110318013E0319AB2CDC0761088A
:1009580003110318013E0319B22CDD075D1CB52CE9
:10096800B62C8C2D6D1CB92CBA2CC32C6D08E2004A
:100978000310620C0138E3006308ED00C52C031076
:10098800ED0C5A1CC82CC92CCA2CED170130E200FA
:100998005D0DDD0CDC0CDB0CDA0CE20BCC2C013031
:1009A800E2006208EC078C2D5D08803AFF006108C0
:1009B800803A7F02031DEA2C60085C02031DEA2CC2
:1009C8005F085B02031DEA2C5E085A020318ED2C2F
:1009D800EE2C462DFF30E200FF30E300FF30E4004C
:1009E800FF30E5005E08E6005F08E7006008E80001
:1009F8006108E9005A08E6025B08031C5B0F052D35
:100A0800062DE7025C08031C5C0F0B2D0C2DE80279
:100A18005D08031C5D0F112D122DE9026608E2071F
:100A280067080318670F192D1A2DE30768080318BC
:100A3800680F1F2D202DE40769080318690AE507C8
:100A48006508DD006408DC006308DB006208DA0082
:100A58008030E2006208EA06ED09ED0A6D08031D20
:100A6800362D372D542D0130DA07003003180130A8
:100A7800DB07003003180130DC07003003180130B1
:100A8800DD07542D5E08DA025F08031C5F0FDB02E6
:100A98006008031C600FDC026108031C610FDD02A3
:100AA8005D085C045B045A04031D5B2D5C2D882DD6
:100AB8006D08031D602D612D882D0030DD0000308C
:100AC800DC000030DB000030DA00062E0130E200E6
:100AD8000310DA0DDB0DDC0DDD0DE20B6C2DED1FC7
:100AE800762D772D782D5A146D1C7B2D7C2D7F2D1E
:100AF8000314ED0D812D0310ED0D6C080319852DE0
:100B0800862D882D0130EC02DC1F8B2D8C2D6A2D53
:100B1800EB01ED1F902D912D9F2D6D087F39031945
:100B2800962D972D9A2DEB01EB0A9F2D5A1C9D2D82
:100B38009E2D9F2D972D6B080319A32DA42DD82D1D
:100B48000130DA07003003180130DB0700300318E2
:100B58000130DC07003003180130DD075D1CB52DBE
:100B6800B62DD82D5A08E2005B08E3005C08E400C3
:100B78005D08E5000130E600650DE50CE40CE30CCA
:100B8800E20CE60BC02D6508DD006408DC00630894
:100B9800DB006208DA006C0A0319D32DD42DD82D96
:100BA8000130E2006208EC076C0A0319DC2DDD2D28
:100BB800E22D6C08031DE12DE22DF02D0030DD0043
:100BC8000030DC000030DB000030DA006C08031D68
:100BD800EE2DEF2DF02DEA016C1CF32DF42DF62DE2
:100BE800DC17FA2D7F30E2006208DC056C08E200B1
:100BF8000310620CE3006308DD00EA1F042E052ED3
:100C0800062EDD170800831203132D088039AE0065
:100C18002E08B7002D08AE002E07AF002F08BE0023
:100C2800AC1F172E182E192E3E143E0803191D2E20
:100C38001E2E2E2E3E0A031D222E232E2B2E003072
:100C4800AD000030AC000030AB000030AA00AC179B
:100C5800AD01362E0030AD000030AC000030AB00E6
:100C68000030AA0029088039AE002E08B7062908E6
:100C7800AE002E07AF002F08BF00A81F442E452E38
:100C8800462E3F143F0803194A2E4B2E5B2E3F0A6F
:100C9800031D4F2E502E582E0030A9000030A800FA
:100CA8000030A7000030A600A817A901632E003065
:100CB800A9000030A8000030A7000030A6002908CD
:100CC800280427042604031D6A2E6B2E842E003068
:100CD800AD000030AC000030AB000030AA0080301E
:100CE800AC047F30AD043708AE002E08AD042D08E3
:100CF800A9002C08A8002B08A7002A08A600E32FA3
:100D08003E08031D882E892E922E0030A90000303F
:100D1800A8000030A7000030A600E32F3E08AE0070
:100D2800AF012F08B1003F082E02B000031CB10329
:100D380030087F3EB80031080318013E003EB90074
:100D48002D08B6002C08B5002B08B4002A08B300FB
:100D58000030AD000030AC000030AB000030AA001D
:100D68000030BD000030BC000030BB000030BA00CD
:100D7800BF01082F3F080319C22EC32EE32E0130EE
:100D8800AE000310B30DB40DB50DB60DAE0BC52EE8
:100D98000130AE000310AA0DAB0DAC0DAD0DAE0BBE
:100DA800CE2EBD1FD82ED92EDA2E2A140130AE0031
:100DB8000310BA0DBB0DBC0DBD0DAE0BDC2E290802
:100DC8003602031DF12E28083502031DF12E2708CF
:100DD8003402031DF12E26083302031CF42EF52ECF
:100DE800042F3D172608B3022708031C270FB40257
:100DF8002808031C280FB5022908031C290FB6026E
:100E08000130AE002E08BF071A303F02031C0D2F19
:100E18000E2FBE2E36083504340433040319152F5B
:100E2800162F352F3A14352F0130AE000310AA0DB6
:100E3800AB0DAC0DAD0DAE0B1A2FBD1F242F252FFA
:100E4800262F2A140130AE000310BA0DBB0DBC0DBD
:100E5800BD0DAE0B282FFF30B8070318B90AFF30B5
:100E6800B907AC1F382F392F182FBF01BD1F3D2FD1
:100E78003E2F5A2FFF303A05AE00FF303B05AF003A
:100E8800FF303C05B0007F303D05B100310830042B
:100E98002F042E040319512F522F552FBF01BF0ABB
:100EA8005A2F2A1C582F592F5A2F522F3F080319EF
:100EB8005E2F5F2F902F0130AA07003003180130F2
:100EC800AB07003003180130AC07003003180130BD
:100ED800AD072D1C702F712F902F2A08AE002B08FC
:100EE800AF002C08B0002D08B1000130B200310D60
:100EF800B10CB00CAF0CAE0CB20B7B2F3108AD00AF
:100F08003008AC002F08AB002E08AA000130B80743
:100F18000318B90A0030B9073908803AFF00803051
:100F28007F02031D992FFF303802031C9C2F9D2F31
:100F3800AB2FFF3083120313B8000030B900003024
:100F4800AD000030AC000030AB000030AA008312C6
:100F580003133908803AFF0080307F02031DB62F43
:100F6800013038020318B92FBA2FC72F8312031381
:100F7800B801B9010030AD000030AC000030AB0062
:100F88000030AA00B701831203133808AE002E08F8
:100F9800BE003E1CD02FD12FD32FAC17D72F7F30B8
:100FA800AE002E08AC053E08AE0003102E0CAF00B4
:100FB8002F08AD003708AE002E08AD047B2E0800C0
:1019140083120313A400A001A1017308F500F601CA
:101924007508A2007608A300241C992C9A2CA02CDC
:101934002208A0070318A10A2308A10701300310F5
:10194400A20DA30DFF3E031DA12C0310A40C24081B
:10195400031DAD2CAE2C962C2108F4002008F300B6
:101964000800831203138C1DB82CB92CE22C14121A
:10197400141BBD2CBE2CC22C941FC12CC22CC62CF3
:10198400130814139413141683160313941ACB2CEC
:10199400CC2CE02C1419CF2CD02CE02C1410141CBB
:1019A400D42CD52CD12C831203131308F000700807
:1019B40083160313BD0083120313141683128C11B0
:1019C40072088A00710E8300FE0E7E0E09008316D3
:1019D4000313B200A9017F30B0003008AA00003020
:1019E400AB00AC007D30AD000030AE0032080A120E
:1019F4008A158E260A128A15831603132A08B8003C
:101A04002908B7003808B1003708B0000310B10C3A
:101A1400B00C0310B10CB00C300883120313950002
:101A24008316031337080339B000B00E831203136F
:101A34001708831603133006CF39300683120313B5
:101A4400970008000A128A1565250A128A1583165A
:101A5400031339083D060319302D312D292D3D0876
:101A64000139B3003308BC003C08031D3A2D3B2D5B
:101A7400492D3D08B3000310330CB4003408BB00F7
:101A84003B080A128A15E9240A128A155B2D3C03C5
:101A9400031D4D2D4E2D5B2D3D08B3000310330C5B
:101AA400B4003408BA003A080A128A15AF250A129B
:101AB4008A15831603133D08B3003308B900292D92
:101AC4000A128A110C2883160317880189018316C8
:101AD40003130F088F3940388F000F148312031338
:101AE40087011830831603138700071587141F30E6
:101AF40092008312031397019D013F309705170845
:101B0400F0390C3897001D08F0390C389D00083066
:101B14009500CF30970508309B001D129D128C1044
:101B24000330920412158C1C982D992D952D8C1030
:101B3400831603130711871012309300941783122E
:101B440003131408F0390638940094168C11831684
:101B540003138C150B178B17080083160313B2009D
:101B6400A9017F30B0003008AA000030AB00AC00FF
:101B74007D30AD000030AE0032080A128A158E2680
:101B84000A128A15831603132A08B6002908B50019
:101B94003608B1003508B0000310B10CB00C0310C6
:101BA400B10CB00C3008831203139B00831603138B
:101BB40035080139B000B00E831203131D088316D3
:101BC40003133006EF393006831203139D00831686
:101BD400031335080239B000B00EB00D831203139D
:101BE4001D08831603133006DF39300683120313EE
:101BF4009D000800031083160313220D230DA40077
:101C0400240883120313EF006F08031D0A2E0B2E02
:101C1400162E003083160313A3000030A2000030F8
:101C2400A1000030A0008D2E831603132008A40009
:101C34002108A5002208A6002308A7001F300310CE
:101C4400A70CA60CA50CA40CFF3E031D212E2408F2
:101C5400A800280883120313EE0083160313A217A7
:101C6400FF30A005FF30A105FF30A2050030A30519
:101C7400963083120313EF02EF1F412E422E602E83
:101C84006F08803A973E0318482E492E4A2E0B2E91
:101C94000130031083160313A30CA20CA10CA00C97
:101CA400FF3E031D4B2E0130A400240883120313AE
:101CB400EF07031D5E2E5F2E4A2E7B2E20306F020F
:101CC400031C652E662E762E0B2E0130831603130D
:101CD400A4000310A00DA10DA20DA30DA40B6B2E47
:101CE400013083120313EF026F08031D7A2E7B2E3B
:101CF400672E6E0803197F2E802E8D2E83160313F4
:101D0400A009A109A209A309A00A0319A10A031998
:101D1400A20A0319A30A080083160313AF002B08B1
:101D2400F3002C08F400F501F60100300A128A15BC
:101D340044270A128A15760883120313E1007508F2
:101D4400E0007408DF007308DE00831603132B0819
:101D54002D02F3002C08031C2C0A2E02F400F501BA
:101D6400F60100300A128A1544270A128A157608E9
:101D740083120313AD007508AC007408AB0073083C
:101D8400AA008316031329082A02F300F401031C92
:101D9400F403F501F41BF5037508F60001300A128B
:101DA4008A1544270A128A15760883120313A90098
:101DB4007508A8007408A7007308A6000A128A11FF
:101DC40007260A128A15831203132908C700280854
:101DD400C6002708C5002608C40083160313290873
:101DE4002F02F300F401031CF403F501F41BF503C3
:101DF4007508F60001300A128A1544270A128A155A
:101E0400760883120313C3007508C2007408C10066
:101E14007308C0000A128A111E200A128A1583123E
:101E240003134308DD004208DC004108DB004008DE
:101E3400DA000A128A117F230A128A158312031305
:101E44005D0883160313A300831203135C0883162F
:101E54000313A200831203135B0883160313A10068
:101E6400831203135A0883160313A0000A128A1557
:101E7400FC250A128A15831603132108AA002008D8
:101E8400A900080083120313A000200803194B2F94
:101E94004C2F602FF61F4F2F502F602F7309A20075
:101EA4007409A3007509A4007609A500A20A031900
:101EB400A30A0319A40A0319A50A682F7608A50022
:101EC4007508A4007408A3007308A20076087504BA
:101ED40074047304031D6F2F702F792F0030F600E4
:101EE4000030F5000030F4000030F300FF2F96308E
:101EF400F7007708A1008B2F0130F7007708A107BE
:101F040001300310A50CA40CA30CA20CFF3E031D6E
:101F1400832FFE302505031D902F912F7E2FAD2F8B
:101F24000130F7007708A1070130A2070030031839
:101F34000130A307003003180130A4070030031850
:101F44000130A50701300310A50CA40CA30CA20CAE
:101F5400FF3E031DA52FFF302505031DB22FB32F10
:101F6400922FBF2F0130A1020130F7000310A20D00
:101F7400A30DA40DA50DF70BB82FA41BC22FC32FBF
:101F8400C92F023021020318C82FC92FB42F2118DA
:101F9400CC2FCD2FD52FFF30A205FF30A3057F30E6
:101FA400A405FF30A5050310A10C2108F700F801D2
:101FB400F901FA0118300310F70DF80DF90DFA0DB7
:101FC400FF3E031DDD2F7708A2047808A3047908D7
:101FD400A4047A08A50420080319F12FF22FF72F7F
:101FE400F61FF52FF62FF72FA5172508F60024085E
:0C1FF400F5002308F4002208F3000800A8
:08400000FF3FFF3FFF3FFF3FC0
:04400E00D420FF3F7C
:00000001FF
