:060000000A128A110C280F
:10000800FE00030EF1000A08F2000A128A116328A2
:100018000A128A110F28F401F50183010A128A11C4
:100028008D2801308316031788008901831603136E
:100038000F088F3940388F000F1401308500831264
:10004800031385013F309F05831603131F129F1664
:10005800C330831203139F05831603139F13831260
:1000680003131F140330F300F30B3828831603130C
:1000780007159B3092008312031397013F309705B1
:100088001708F0390C3897001F3095001708CF393A
:10009800103897008C100330920412158C1C5528C8
:1000A800562852288C108316031307118312031342
:1000B8000C13831603130C170B178B1708008312E6
:1000C80003130C1F6828692886281F0CF000700C81
:1000D8000F39003A031D7128722885281E08F00080
:1000E80002300310F00CFF3E031D752870089500C0
:1000F8001E080339F000F00E17087006CF39700695
:1001080097000C1372088A00710E8300FE0E7E0E93
:1001180009000A128A1115200A128A118312031380
:100128009F189728982892289F1492280A128A11B3
:020138000C2891
:08400000FF3FFF3FFF3FFF3FC0
:04400E00D420FF3F7C
:00000001FF
