:060000000A128A110C280F
:10000800FE00030EF1000A08F2000A128A116128A4
:100018000A128A110F28F401F50183010A128A11C4
:100028008B28013083160317880089018316031370
:100038000F088F3940388F000F1401308500831264
:10004800031385013F309F05831603131F129F1664
:10005800C330831203139F05831603139F13831260
:1000680003131F140330F300F30B3828831603130C
:1000780007151E3092008312031397013F3097052E
:100088001708F0390C38970007309500303097047E
:100098008C100330920412158C1C532854285028B5
:1000A8008C10831603130711831203130C13831682
:1000B80003130C170B178B170800831203130C1F5D
:1000C8006628672884281F0CF000700C0F39003A46
:1000D800031D6F28702883281E08F00002300310C3
:1000E800F00CFF3E031D7328700895001E080339A5
:1000F800F000F00E17087006CF39700697000C1341
:1001080072088A00710E8300FE0E7E0E09000A1224
:100118008A1115200A128A11831203139F18952831
:0E012800962890289F1490280A128A110C28FD
:08400000FF3FFF3FFF3FFF3FC0
:04400E00D420FF3F7C
:00000001FF
