:060000000A128A110C280F
:10000800FE00030EF1000A08F2000A128A15AA2C53
:100018000A128A110F28F901FA0183160313B6018F
:10002800B701B801B901BA01BB0183010A128A15E7
:10003800642C8312031347088039CC004C08D10084
:100048004708CC004C07CD004D08D700C61F2D2807
:100058002E282F28571457080319332834284328E3
:10006800570A031D3828392841280030C7000030B6
:10007800C6000030C5000030C400C6174B28003049
:10008800C7000030C6000030C5000030C4004B086F
:100098008039CC004C08D1064B08CC004C07CD0069
:1000A8004D08D200CA1F59285A285B2852145208F2
:1000B80003195F2860286F28520A031D64286528E1
:1000C8006D280030CB000030CA000030C900003075
:1000D800C800CA1777280030CB000030CA000030AB
:1000E800C9000030C800520803197B287C288128E1
:1000F8005708031D802881288A280030C70000304F
:10010800C6000030C5000030C4007D2B4408CC0078
:100118004C08F3004A080A128A1581240A128A1127
:10012800740883120313DD007308DC005C08CC003C
:10013800CD01CE01CF014F08D6004E08D5004D089D
:10014800D4004C08D3005D08CC00CD01CE01CF010E
:100158004F08DB004E08DA004D08D9004C08D800DB
:100168004508CC004C08F30049080A128A15812476
:100178000A128A11740883120313DD007308DC0065
:100188005C08CC00CD01CE01CF014C08D3074D0847
:1001980003110318013E0319D228D4074E0803118E
:1001A8000318013E0319D928D5074F08031103186E
:1001B800013E0319E028D6075D08CC00CD01CE0129
:1001C800CF014C08D8074D0803110318013E031945
:1001D800EE28D9074E0803110318013E0319F52824
:1001E800DA074F0803110318013E0319FC28DB073F
:1001F8004608CC004C08F30048080A128A158124E6
:100208000A128A11740883120313DD007308DC00D4
:100218005C08CC00CD01CE01CF014C08D3074D08B6
:1002280003110318013E03191A29D4074E080311B4
:100238000318013E03192129D5074F080311031894
:10024800013E03192829D6075D08CC00CD01CE014F
:10025800CF014C08D8074D0803110318013E0319B4
:100268003629D9074E0803110318013E03193D2901
:10027800DA074F0803110318013E03194429DB0765
:100288000830CC000310D30DD40DD50DD60DCC0BF2
:1002980046294508CC004C08F30048080A128A157C
:1002A80081240A128A11740883120313DD0073086B
:1002B800DC005C08CC005D08CD00CE01CF014C0805
:1002C800D3074D0803110318013E03196C29D407FD
:1002D8004E0803110318013E03197329D5074F0867
:1002E80003110318013E03197A29D6074408CC00E4
:1002F8004C08F30049080A128A1581240A128A1147
:10030800740883120313DD007308DC005C08CC005A
:100318005D08CD00CE01CF014C08D3074D0803116D
:100328000318013E03199929D4074E08031103182D
:10033800013E0319A029D5074F0803110318013EF0
:100348000319A729D6070830CC000310D30DD40D04
:10035800D50DD60DCC0BA9294408CC004C08F300C8
:1003680048080A128A1581240A128A11740883120D
:100378000313DD007308DC005C08CC005D08CD00C9
:10038800CE01CF014C08D3074D0803110318013ED5
:100398000319CF29D4074E0803110318013E031986
:1003A800D629D5074F0803110318013E0319DD2983
:1003B800D6074508CC004C08F3004A080A128A15EB
:1003C80081240A128A11740883120313DD0073084A
:1003D800DC005C08CC005D08CD00CE01CF014C08E4
:1003E800D8074D0803110318013E0319FC29D90742
:1003F8004E0803110318013E0319032ADA074F08B0
:1004080003110318013E03190A2ADB074608CC002A
:100418004C08F30049080A128A1581240A128A1125
:10042800740883120313DD007308DC005C08CC0039
:100438005D08CD00CE01CF014C08D8074D08031147
:100448000318013E0319292AD9074E080311031876
:10045800013E0319302ADA074F0803110318013E39
:100468000319372ADB074608CC004C08F3004A0872
:100478000A128A1581240A128A1174088312031336
:10048800DD007308DC005C08CC005D08CD00CE01FF
:10049800CF0108300310CC0DCD0DCE0DCF0DFF3E92
:1004A800031D4E2A4C08D8074D0803110318013EB6
:1004B80003195F2AD9074E0803110318013E0319CF
:1004C800662ADA074F0803110318013E03196D2A3B
:1004D800DB075308CC005408CD005508CE00560859
:1004E800CF0018300310CF0CCE0CCD0CCC0CFF3E37
:1004F800031D762A4C08D8074D0803110318013E3E
:100508000319872AD9074E0803110318013E031956
:100518008E2ADA074F0803110318013E0319952A9A
:10052800DB070830CC000310D30DD40DD50DD60D44
:10053800CC0B972A57085207CC00CD01CD0D4C089B
:10054800823EDC004D080318013EFF3EDD00C92A4B
:100558000130CC000310D80DD90DDA0DDB0DCC0B12
:10056800AE2AD61FB82AB92ABA2A58140130CC00A4
:100578000310D30DD40DD50DD60DCC0BBC2AFF30EE
:10058800DC070318DD0AFF30DD07DA1FCC2ACD2A85
:10059800AC2AD201D61FD12AD22AEE2AFF3053051F
:1005A800CC00FF305405CD00FF305505CE007F301C
:1005B8005605CF004F084E044D044C040319E52A94
:1005C800E62AE92AD201D20AEE2A581CEC2AED2A98
:1005D800EE2AE62A52080319F22AF32A242B0130BC
:1005E800D807003003180130D9070030031801304C
:1005F800DA07003003180130DB075B1C042B052BDE
:10060800242B5808CC005908CD005A08CE005B08A6
:10061800CF000130D0004F0DCF0CCE0CCD0CCC0C40
:10062800D00B0F2B4F08DB004E08DA004D08D9001D
:100638004C08D8000130DC070318DD0A0030DD075C
:100648005D08803AFF0080307F02031D2D2BFF30AC
:100658005C02031C302B312B3C2B7F30831203139D
:10066800DB008030DA000030D9000030D800712B70
:10067800831203135D08803AFF0080307F02031D58
:10068800472B01305C0203184A2B4B2B572B0030A9
:1006980083120313DB000030DA000030D900003089
:1006A800D800D101712B831203135C08CC004C08CD
:1006B800D700FF30D805FF30D9057F30DA05003084
:1006C800DB05571C682B692B6A2BDA175708CC00F7
:1006D80003104C0CCD004D08DB005108CC004C0831
:1006E800DB045B08C7005A08C6005908C50058084B
:1006F800C40008008312031361088039E600660805
:1007080083160313A000831203136108E60066072B
:10071800E700670883160313A20083120313E01F80
:10072800962B972B9A2B83160313221483160313E5
:1007380022080319A02BA12BB42B220A031DA52BD9
:10074800A62BB02B003083120313E1000030E00029
:100758000030DF000030DE008312E017E101BE2B1D
:10076800003083120313E1000030E0000030DF00A6
:100778000030DE0065088039E6006608831603133A
:10078800A100210820060319CA2BCB2BCC2B20173C
:10079800831203136508E6006607E70067088316F7
:1007A8000313A10083120313E41FDB2BDC2BDF2BC5
:1007B8008316031321148316031321080319E52B49
:1007C800E62BF92B210A031DEA2BEB2BF52B003026
:1007D80083120313E5000030E4000030E30000302A
:1007E800E2008312E417E501032C0030831203139F
:1007F800E5000030E4000030E3000030E20083163A
:1008080003132208210203180A2C0B2C812C201F09
:100818000E2C0F2C172C803083120313E600660869
:1008280083160313A006220883120313E600660842
:1008380083160313A300210883120313E600660836
:1008480083160313A200230883120313E600660825
:1008580083160313A100831203135E08E6006608DB
:1008680083160313A300831203136208E6006608C5
:10087800DE0083160313230883120313E6006608B9
:10088800E2005F08E600660883160313A3008312DC
:1008980003136308E6006608DF00831603132308C2
:1008A80083120313E6006608E3006008E6006608A2
:1008B80083160313A300831203136408E600660873
:1008C800E00083160313230883120313E600660867
:1008D800E4006108E600660883160313A300831288
:1008E80003136508E6006608E1008316031323086E
:1008F80083120313E6006608E50083160313A301B9
:10090800210883120313E600E7016708E90083164C
:1009180003132208831203136602E800031CE90389
:100928006908803AFF0080307F02031D9D2C1A3031
:100938006802031CA02CA12CF32C8312031361085A
:1009480060045F045E04031DAA2CAC2C0130AD2C9E
:100958000030E600660883160313A30000308312F4
:100968000313E1000030E0000030DF000030DE005B
:1009780083160313210883120313E60066088316FF
:100988000313A200FB2C231CCA2CCB2CD82C230825
:1009980083120313E6000310660C0138E7006708AA
:1009A80083160313A300DA2C0310A30C831203137A
:1009B8005E1CDF2CE02CE32C83160313A3170130F5
:1009C8008312E600610DE10CE00CDF0CDE0CE60B97
:1009D800E62C0130E600660883160313A207831687
:1009E800031321082202031CFA2CFB2CC72C201B02
:1009F800FE2CFF2C5B2D2208031D032D042D0F2D2B
:100A0800003083120313E1000030E0000030DF0003
:100A18000030DE00BD2E831203136208DE07630870
:100A280003110318013E03191A2DDF076408031187
:100A38000318013E0319212DE00765080311031867
:100A4800013E0319282DE107611C2B2D2C2D212E89
:100A580083160313231C312D322D3F2D23088312B7
:100A68000313E6000310660C0138E70067088316D5
:100A78000313A300412D0310A30C831203135E1C60
:100A8800462D472D4A2D83160313A31701308312D1
:100A9800E600610DE10CE00CDF0CDE0CE60B4D2DE1
:100AA8000130E600660883160313A207212E83127D
:100AB80003136108803AFF006508803A7F02031D2E
:100AC8006F2D64086002031D6F2D63085F02031D0C
:100AD8006F2D62085E020318722D732DCF2DFF3023
:100AE800E600FF30E700FF30E800FF30E900620869
:100AF800EA006308EB006408EC006508ED005E0896
:100B0800EA025F08031C5F0F8A2D8B2DEB02600839
:100B1800031C600F902D912DEC026108031C610FDE
:100B2800962D972DED026A08E6076B0803186B0FE0
:100B38009E2D9F2DE7076C0803186C0FA42DA52D7B
:100B4800E8076D0803186D0AE9076908E1006808F5
:100B5800E0006708DF006608DE008030E60066080F
:100B680083160313A006A309A30A2308031DBD2D9A
:100B7800BE2DDD2D013083120313DE07003003186C
:100B88000130DF07003003180130E0070030031898
:100B98000130E107DD2D6208DE026308031C630FE4
:100BA800DF026408031C640FE0026508031C650F7C
:100BB800E1028312610860045F045E04031DE52DF1
:100BC800E62D1C2E831603132308031DEC2DED2D93
:100BD8001C2E003083120313E1000030E0000030C7
:100BE800DF000030DE00BD2E0130E6000310DE0D10
:100BF800DF0DE00DE10DE60BFA2D83160313A31F9D
:100C0800062E072E0A2E831203135E14831603136F
:100C1800231C0F2E102E132E0314A30D152E0310B4
:100C2800A30D22080319192E1A2E1C2E0130A20218
:100C38008312E01F202E212EF82D83160313A10105
:100C4800A31F272E282E3A2E23087F3903192D2E6D
:100C58002E2E332E83160313A101A10A3A2E8312D6
:100C680003135E1C382E392E3A2E2E2E83160313AC
:100C780021080319402E412E7D2E013083120313C3
:100C8800DE07003003180130DF0700300318013099
:100C9800E007003003180130E107611C542E552E7F
:100CA8007D2E5E08E6005F08E7006008E80061083E
:100CB800E9000130EA00690DE90CE80CE70CE60CE4
:100CC800EA0B5F2E6908E1006808E0006708DF00AA
:100CD8006608DE0083160313220A0319742E752E84
:100CE8007D2E013083120313E60066088316031372
:100CF800A20783160313220A0319832E842E892E32
:100D08002208031D882E892E9B2E00308312031380
:100D1800E1000030E0000030DF000030DE00831624
:100D280003132208031D992E9A2E9B2EA001221C24
:100D38009E2E9F2EA32E83120313E017A92E7F3019
:100D480083120313E6006608E005831603132208DE
:100D580083120313E6000310660CE7006708E1003E
:100D680083160313A01FB92EBA2EBD2E83120313A8
:100D7800E117080083120313A40024080319C52EE1
:100D8800C62EDA2EF61FC92ECA2EDA2E7309A60031
:100D98007409A7007509A8007609A900A60A03190D
:100DA800A70A0319A80A0319A90AE22E7608A900B6
:100DB8007508A8007408A7007308A60076087504CB
:100DC80074047304031DE92EEA2EF32E0030F60096
:100DD8000030F5000030F4000030F300792F963031
:100DE800A0002008A500052F0130A0002008A507B5
:100DF80001300310A90CA80CA70CA60CFF3E031D7C
:100E0800FD2EFE302905031D0A2F0B2FF82E272F44
:100E18000130A0002008A5070130A60700300318FC
:100E28000130A707003003180130A8070030031865
:100E38000130A90701300310A90CA80CA70CA60CB7
:100E4800FF3E031D1F2FFF302905031D2C2F2D2FBB
:100E58000C2F392F0130A5020130A0000310A60D78
:100E6800A70DA80DA90DA00B322FA81B3C2F3D2FB5
:100E7800432F023025020318422F432F2E2F251807
:100E8800462F472F4F2FFF30A605FF30A7057F308D
:100E9800A805FF30A9050310A50C2508A000A1018D
:100EA800A201A30118300310A00DA10DA20DA30DDE
:100EB800FF3E031D572F2008A6042108A704220877
:100EC800A8042308A904240803196B2F6C2F712F79
:100ED800F61F6F2F702F712FA9172908F600280801
:100EE800F5002708F4002608F3000800031083160D
:100EF8000313260D270DA8002808F8007808031DFD
:100F0800862F872F902F0030A7000030A6000030D2
:100F1800A5000030A400F52F2408A8002508A90082
:100F28002608AA002708AB001F300310AB0CAA0C38
:100F3800A90CA80CFF3E031D992F2808AC002C080B
:100F4800F700A617FF30A405FF30A505FF30A6055A
:100F58000030A7059630F802F81FB32FB42FCE2F14
:100F68007808803A973E0318BA2FBB2FBC2F872FDB
:100F780001300310A70CA60CA50CA40CFF3E031D02
:100F8800BD2F0130A8002808F807031DCC2FCD2F4E
:100F9800BC2FE52F20307802031CD32FD42FE02F4D
:100FA800872F0130A8000310A40DA50DA60DA70DCD
:100FB800A80BD72F0130F8027808031DE42FE52F7E
:100FC800D52F77080319E92FEA2FF52FA409A509CA
:100FD800A609A709A40A0319A50A0319A60A031949
:040FE800A70A08004C
:1018C8000A128A151F250A128A15831603133A0865
:1018D8003B060319702C712C692C3B080A128A15D7
:1018E800E0240A128A15831603133B08B50035084D
:1018F800BA00692C0A128A110C2883120313A40057
:10190800A001A1017308F500F6017508A200760888
:10191800A300241C902C912C972C2208A0070318B4
:10192800A10A2308A10701300310A20DA30DFF3E51
:10193800031D982C0310A40C2408031DA42CA52C0B
:101948008D2C2108F4002008F300080083120313EB
:101958008C1DAF2CB02CD92C1412141BB42CB52C04
:10196800B92C941FB82CB92CBD2C1308141394133C
:10197800141683160313941AC22CC32CD72C1419CB
:10198800C62CC72CD72C1410141CCB2CCC2CC82C30
:10199800831203131308F000700883160313BB00A7
:1019A80083120313141683128C1172088A00710EA5
:1019B8008300FE0E7E0E090083120313EF008316C8
:1019C8000313AD01FF30B3003308AE000030AF00A1
:1019D800B0007D30B1000030B200831203136F08ED
:1019E8000A128A1569250A128A15831603132E0806
:1019F800B9002D08B8003908B4003808B30003103E
:101A0800B40CB30C0310B40CB30C330883120313D7
:101A180095008316031338080339B300B30E8312F5
:101A280003131708831603133306CF3933068312BB
:101A3800031397000800831603178801890183168A
:101A480003130F088F3940388F000F1483120313C4
:101A580087011830831603138700071587141F3072
:101A680092008312031397019D013F3097051708D1
:101A7800F0390C3897001D08F0390C389D000830F3
:101A88009500CF30970508309B001D129D128C10D1
:101A98000330920412158C1C522D532D4F2D8C108F
:101AA80083160313071187101030930094178312BD
:101AB80003131408F0390638940094168C11831611
:101AC80003138C150B178B17080083120313EE00F2
:101AD800831603132F08F3003008F400F501F6010C
:101AE80000300A128A11BE260A128A157608831255
:101AF8000313E5007508E4007408E3007308E200C6
:101B0800831603132F083102F3003008031C300A30
:101B18003202F400F501F60100300A128A11BE26DD
:101B28000A128A15760883120313B1007508B000EB
:101B38007408AF007308AE00831603132D082E0235
:101B4800F300F401031CF403F501F41BF503750815
:101B5800F60001300A128A11BE260A128A15760882
:101B680083120313AD007508AC007408AB0073084A
:101B7800AA000A128A1523260A128A158312031349
:101B88002D08CB002C08CA002B08C9002A08C80059
:101B9800831603132D08831203136E02F300F40156
:101BA800031CF403F501F41BF5037508F600013076
:101BB8000A128A11BE260A128A157608831203139E
:101BC800C7007508C6007408C5007308C4000A1267
:101BD8008A111D200A128A15831203134708E1008F
:101BE8004608E0004508DF004408DE000A128A11B2
:101BF8007E230A128A1583120313610883160313BE
:101C0800A70083120313600883160313A600831228
:101C180003135F0883160313A500831203135E08DA
:101C280083160313A4000A128A117A270A128A1546
:101C3800831603132508AE002408AD00080083129C
:101C4800031331088039B2003208BB003108B200F2
:101C58003207B3003308C200B01F332E342E352E9E
:101C6800421442080319392E3A2E4A2E420A031DFD
:101C78003E2E3F2E472E0030B1000030B00000301D
:101C8800AF000030AE00B017B101522E0030B100E5
:101C98000030B0000030AF000030AE002D088039B1
:101CA800B2003208BB062D08B2003207B300330871
:101CB800C300AC1F602E612E622E43144308031923
:101CC800662E672E772E430A031D6B2E6C2E742EFC
:101CD8000030AD000030AC000030AB000030AA008E
:101CE800AC17AD017F2E0030AD000030AC000030E5
:101CF800AB000030AA002D082C042B042A04031D75
:101D0800862E872EA02E0030B1000030B0000030A3
:101D1800AF000030AE008030B0047F30B1043B0823
:101D2800B2003208B1043108AD003008AC002F0809
:101D3800AB002E08AA00FF2F4208031DA42EA52ED3
:101D4800AE2E0030AD000030AC000030AB000030EB
:101D5800AA00FF2F4208B200B3013308B5004308B8
:101D68003202B400031CB50334087F3EBC003508BA
:101D78000318013E003EBD003108BA003008B90022
:101D88002F08B8002E08B7000030B1000030B000AE
:101D98000030AF000030AE000030C1000030C0009D
:101DA8000030BF000030BE00C301242F43080319D0
:101DB800DE2EDF2EFF2E0130B2000310B70DB80D56
:101DC800B90DBA0DB20BE12E0130B2000310AE0D01
:101DD800AF0DB00DB10DB20BEA2EC11FF42EF52ECA
:101DE800F62E2E140130B2000310BE0DBF0DC00D2B
:101DF800C10DB20BF82E2D083A02031D0D2F2C0829
:101E08003902031D0D2F2B083802031D0D2F2A0838
:101E18003702031C102F112F202F41172A08B70251
:101E28002B08031C2B0FB8022C08031C2C0FB9021B
:101E38002D08031C2D0FBA020130B2003208C30767
:101E48001A304302031C292F2A2FDA2E3A083904A4
:101E5800380437040319312F322F512F3E14512FD4
:101E68000130B2000310AE0DAF0DB00DB10DB20BC5
:101E7800362FC11F402F412F422F2E140130B200A0
:101E88000310BE0DBF0DC00DC10DB20B442FFF30A6
:101E9800BC070318BD0AFF30BD07B01F542F552FCC
:101EA800342FC301C11F592F5A2F762FFF303E05FB
:101EB800B200FF303F05B300FF304005B4007F306B
:101EC8004105B500350834043304320403196D2F75
:101ED8006E2F712FC301C30A762F2E1C742F752FF6
:101EE800762F6E2F430803197A2F7B2FAC2F0130E2
:101EF800AE07003003180130AF0700300318013077
:101F0800B007003003180130B107311C8C2F8D2F1A
:101F1800AC2F2E08B2002F08B3003008B4003108E7
:101F2800B5000130B600350DB50CB40CB30CB20CCD
:101F3800B60B972F3508B1003408B0003308AF004E
:101F48003208AE000130BC070318BD0A0030BD07D7
:101F58003D08803AFF0080307F02031DB52FFF3017
:101F68003C02031CB82FB92FC72FFF30831203136D
:101F7800BC000030BD000030B1000030B0000030BF
:101F8800AF000030AE00831203133D08803AFF0013
:101F980080307F02031DD22F01303C020318D52F59
:101FA800D62FE32F83120313BC01BD010030B1000B
:101FB8000030B0000030AF000030AE00BB0183122B
:101FC80003133C08B2003208C200421CEC2FED2F6C
:101FD800EF2FB017F32F7F30B2003208B005420858
:101FE800B2000310320CB3003308B1003B08B20052
:081FF8003208B104972E080025
:08400000FF3FFF3FFF3FFF3FC0
:04400E00D420FF3F7C
:00000001FF
