:060000000A128A110C280F
:10000800FE00030EF1000A08F2000A128A15612C9C
:100018000A128A110F28FA0183160313B501B601D3
:10002800B701B801B901BA01BB01BC01BD01830127
:100038000A128A152E2C8312031347088039CC0024
:100048004C08D1004708CC004C07CD004D08D7001C
:10005800C61F2F2830283128571457080319352868
:1000680036284528570A031D3A283B2843280030DC
:10007800C7000030C6000030C5000030C400C617F5
:100088004D280030C7000030C6000030C5000030E1
:10009800C4004B088039CC004C08D1064B08CC0072
:1000A8004C07CD004D08D200CA1F5B285C285D288C
:1000B800521452080319612862287128520A031D34
:1000C800662867286F280030CB000030CA0000304F
:1000D800C9000030C800CA1779280030CB000030AA
:1000E800CA000030C9000030C800520803197D2832
:1000F8007E2883285708031D822883288C280030EF
:10010800C7000030C6000030C5000030C4007F2B97
:100118004408CC004C08F3004A080A128A15052442
:100128000A128A11740883120313DD007308DC00B5
:100138005C08CC00CD01CE01CF014F08D6004E0897
:10014800D5004D08D4004C08D3005D08CC00CD0183
:10015800CE01CF014F08DB004E08DA004D08D90068
:100168004C08D8004508CC004C08F30049080A128E
:100178008A1505240A128A11740883120313DD00F4
:100188007308DC005C08CC00CD01CE01CF014C081F
:10019800D3074D0803110318013E0319D428D407C7
:1001A8004E0803110318013E0319DB28D5074F0831
:1001B80003110318013E0319E228D6075D08CC0095
:1001C800CD01CE01CF014C08D8074D080311031803
:1001D800013E0319F028D9074E0803110318013E00
:1001E8000319F728DA074F0803110318013E03190A
:1001F800FE28DB074608CC004C08F30048080A1222
:100208008A1505240A128A11740883120313DD0063
:100218007308DC005C08CC00CD01CE01CF014C088E
:10022800D3074D0803110318013E03191C29D407ED
:100238004E0803110318013E03192329D5074F0857
:1002480003110318013E03192A29D6075D08CC00BB
:10025800CD01CE01CF014C08D8074D080311031872
:10026800013E03193829D9074E0803110318013E26
:1002780003193F29DA074F0803110318013E031930
:100288004629DB070830CC000310D30DD40DD50D5B
:10029800D60DCC0B48294508CC004C08F30048087B
:1002A8000A128A1505240A128A1174088312031384
:1002B800DD007308DC005C08CC005D08CD00CE01D1
:1002C800CF014C08D3074D0803110318013E031949
:1002D8006E29D4074E0803110318013E0319752926
:1002E800D5074F0803110318013E03197C29D607C7
:1002F8004408CC004C08F30049080A128A15052462
:100308000A128A11740883120313DD007308DC00D3
:100318005C08CC005D08CD00CE01CF014C08D307A6
:100328004D0803110318013E03199B29D4074E08F1
:1003380003110318013E0319A229D5074F08031119
:100348000318013E0319A929D6070830CC00031069
:10035800D30DD40DD50DD60DCC0BAB294408CC004C
:100368004C08F30048080A128A1505240A128A1153
:10037800740883120313DD007308DC005C08CC00EA
:100388005D08CD00CE01CF014C08D3074D080311FD
:100398000318013E0319D129D4074E080311031885
:1003A800013E0319D829D5074F0803110318013E48
:1003B8000319DF29D6074508CC004C08F3004A0882
:1003C8000A128A1505240A128A1174088312031363
:1003D800DD007308DC005C08CC005D08CD00CE01B0
:1003E800CF014C08D8074D0803110318013E031923
:1003F800FE29D9074E0803110318013E0319052ADF
:10040800DA074F0803110318013E03190C2ADB070A
:100418004608CC004C08F30049080A128A1505243E
:100428000A128A11740883120313DD007308DC00B2
:100438005C08CC005D08CD00CE01CF014C08D80780
:100448004D0803110318013E03192B2AD9074E083A
:1004580003110318013E0319322ADA074F08031162
:100468000318013E0319392ADB074608CC004C085B
:10047800F3004A080A128A1505240A128A11740818
:1004880083120313DD007308DC005C08CC005D08F0
:10049800CD00CE01CF0108300310CC0DCD0DCE0D0F
:1004A800CF0DFF3E031D502A4C08D8074D080311F5
:1004B8000318013E0319612AD9074E0803110318CE
:1004C800013E0319682ADA074F0803110318013E91
:1004D80003196F2ADB075308CC005408CD005508D0
:1004E800CE005608CF0018300310CF0CCE0CCD0C20
:1004F800CC0CFF3E031D782A4C08D8074D08031181
:100508000318013E0319892AD9074E080311031855
:10051800013E0319902ADA074F0803110318013E18
:100528000319972ADB070830CC000310D30DD40D2C
:10053800D50DD60DCC0B992A57085207CC00CD0102
:10054800CD0D4C08823EDC004D080318013EFF3EED
:10055800DD00CB2A0130CC000310D80DD90DDA0DFF
:10056800DB0DCC0BB02AD61FBA2ABB2ABC2A5814DA
:100578000130CC000310D30DD40DD50DD60DCC0B06
:10058800BE2AFF30DC070318DD0AFF30DD07DA1F5B
:10059800CE2ACF2AAE2AD201D61FD32AD42AF02AAD
:1005A800FF305305CC00FF305405CD00FF30550512
:1005B800CE007F305605CF004F084E044D044C0442
:1005C8000319E72AE82AEB2AD201D20AF02A581C92
:1005D800EE2AEF2AF02AE82A52080319F42AF52A03
:1005E800262B0130D807003003180130D907003016
:1005F80003180130DA07003003180130DB075B1CF1
:10060800062B072B262B5808CC005908CD005A0872
:10061800CE005B08CF000130D0004F0DCF0CCE0CC0
:10062800CD0CCC0CD00B112B4F08DB004E08DA0098
:100638004D08D9004C08D8000130DC070318DD0A42
:100648000030DD075D08803AFF0080307F02031D1F
:100658002F2BFF305C02031C322B332B3E2B7F30B9
:1006680083120313DB008030DA000030D900003039
:10067800D800732B831203135D08803AFF00803083
:100688007F02031D492B01305C0203184C2B4D2BB4
:10069800592B003083120313DB000030DA000030DE
:1006A800D9000030D800D101732B831203135C08E2
:1006B800CC004C08D700FF30D805FF30D9057F3073
:1006C800DA050030DB05571C6A2B6B2B6C2BDA170D
:1006D8005708CC0003104C0CCD004D08DB00510826
:1006E800CC004C08DB045B08C7005A08C600590850
:1006F800C5005808C4000800831203136108803934
:10070800E600660883160313A0008312031361082A
:10071800E6006607E700670883160313A200831242
:100728000313E01F982B992B9C2B83160313221479
:100738008316031322080319A22BA32BB62B220A14
:10074800031DA72BA82BB22B003083120313E10043
:100758000030E0000030DF000030DE008312E017D8
:10076800E101C02B003083120313E1000030E000E8
:100778000030DF000030DE0065088039E6006608DA
:1007880083160313A100210820060319CC2BCD2BB7
:10079800CE2B2017831203136508E6006607E700CF
:1007A800670883160313A10083120313E41FDD2BCC
:1007B800DE2BE12B83160313211483160313210860
:1007C8000319E72BE82BFB2B210A031DEC2BED2B40
:1007D800F72B003083120313E5000030E4000030EB
:1007E800E3000030E2008312E417E501052C003035
:1007F80083120313E5000030E4000030E30000300A
:10080800E200831603132208210203180C2C0D2C76
:10081800832C201F102C112C192C803083120313C9
:10082800E600660883160313A00622088312031342
:10083800E600660883160313A30021088312031336
:10084800E600660883160313A20023088312031325
:10085800E600660883160313A100831203135E08DB
:10086800E600660883160313A300831203136208C5
:10087800E6006608DE0083160313230883120313B9
:10088800E6006608E2005F08E600660883160313C0
:10089800A300831203136308E6006608DF008316CB
:1008A8000313230883120313E6006608E3006008B5
:1008B800E600660883160313A30083120313640873
:1008C800E6006608E0008316031323088312031367
:1008D800E6006608E4006108E6006608831603136C
:1008E800A300831203136508E6006608E100831677
:1008F8000313230883120313E6006608E500831632
:100908000313A301210883120313E600E701670814
:10091800E900831603132208831203136602E80012
:10092800031CE9036908803AFF0080307F02031D39
:100938009F2C1A306802031CA22CA32CF52C8312BE
:100948000313610860045F045E04031DAC2CAE2C25
:100958000130AF2C0030E600660883160313A300AD
:10096800003083120313E1000030E0000030DF00A4
:100978000030DE0083160313210883120313E600F8
:10098800660883160313A200FD2C231CCC2CCD2C47
:10099800DA2C230883120313E6000310660C0138CF
:1009A800E700670883160313A300DC2C0310A30CCD
:1009B800831203135E1CE12CE22CE52C831603132F
:1009C800A31701308312E600610DE10CE00CDF0C87
:1009D800DE0CE60BE82C0130E600660883160313EC
:1009E800A2078316031321082202031CFC2CFD2CEA
:1009F800C92C201B002D012D5D2D2208031D052D5E
:100A0800062D112D003083120313E1000030E000A1
:100A18000030DF000030DE00BF2E831203136208AF
:100A2800DE07630803110318013E03191C2DDF07B5
:100A3800640803110318013E0319232DE007650814
:100A480003110318013E03192A2DE107611C2D2DFE
:100A58002E2D232E83160313231C332D342D412DC5
:100A6800230883120313E6000310660C0138E7001D
:100A7800670883160313A300432D0310A30C8312E6
:100A880003135E1C482D492D4C2D83160313A31701
:100A980001308312E600610DE10CE00CDF0CDE0C86
:100AA800E60B4F2D0130E600660883160313A207F4
:100AB800232E831203136108803AFF006508803AE9
:100AC8007F02031D712D64086002031D712D6308E8
:100AD8005F02031D712D62085E020318742D752DC7
:100AE800D12DFF30E600FF30E700FF30E800FF308F
:100AF800E9006208EA006308EB006408EC00650896
:100B0800ED005E08EA025F08031C5F0F8C2D8D2D37
:100B1800EB026008031C600F922D932DEC02610814
:100B2800031C610F982D992DED026A08E6076B08E2
:100B380003186B0FA02DA12DE7076C0803186C0F85
:100B4800A62DA72DE8076D0803186D0AE90769089F
:100B5800E1006808E0006708DF006608DE00803012
:100B6800E600660883160313A006A309A30A230850
:100B7800031DBF2DC02DDF2D013083120313DE07A7
:100B8800003003180130DF07003003180130E00798
:100B9800003003180130E107DF2D6208DE02630828
:100BA800031C630FDF026408031C640FE00265087E
:100BB800031C650FE1028312610860045F045E0490
:100BC800031DE72DE82D1E2E831603132308031D8E
:100BD800EE2DEF2D1E2E003083120313E10000309E
:100BE800E0000030DF000030DE00BF2E0130E600FC
:100BF8000310DE0DDF0DE00DE10DE60BFC2D831675
:100C08000313A31F082E092E0C2E831203135E1440
:100C180083160313231C112E122E152E0314A30D55
:100C2800172E0310A30D220803191B2E1C2E1E2E8F
:100C38000130A2028312E01F222E232EFA2D8316E2
:100C48000313A101A31F292E2A2E3C2E23087F3926
:100C580003192F2E302E352E83160313A101A10A56
:100C68003C2E831203135E1C3A2E3B2E3C2E302E54
:100C78008316031321080319422E432E7F2E0130B9
:100C880083120313DE07003003180130DF0700303A
:100C980003180130E007003003180130E107611C38
:100CA800562E572E7F2E5E08E6005F08E700600884
:100CB800E8006108E9000130EA00690DE90CE80C78
:100CC800E70CE60CEA0B612E6908E1006808E00011
:100CD8006708DF006608DE0083160313220A03197B
:100CE800762E772E7F2E013083120313E6006608D6
:100CF80083160313A20783160313220A0319852EEA
:100D0800862E8B2E2208031D8A2E8B2E9D2E0030B8
:100D180083120313E1000030E0000030DF000030F0
:100D2800DE00831603132208031D9B2E9C2E9D2E86
:100D3800A001221CA02EA12EA52E83120313E017BA
:100D4800AB2E7F3083120313E6006608E005831696
:100D58000313220883120313E6000310660CE7004E
:100D68006708E10083160313A01FBB2EBC2EBF2EFD
:100D780083120313E117080083120313A400240845
:100D88000319C72EC82EDC2EF61FCB2ECC2EDC2E38
:100D98007309A6007409A7007509A8007609A900B7
:100DA800A60A0319A70A0319A80A0319A90AE42E0F
:100DB8007608A9007508A8007408A7007308A6009B
:100DC8007608750474047304031DEB2EEC2EF52EBF
:100DD8000030F6000030F5000030F4000030F30079
:100DE8007B2F9630A0002008A500072F0130A00017
:100DF8002008A50701300310A90CA80CA70CA60C05
:100E0800FF3E031DFF2EFE302905031D0C2F0D2F5D
:100E1800FA2E292F0130A0002008A5070130A607C7
:100E2800003003180130A707003003180130A80765
:100E3800003003180130A90701300310A90CA80CD1
:100E4800A70CA60CFF3E031D212FFF302905031D0B
:100E58002E2F2F2F0E2F3B2F0130A5020130A0007F
:100E68000310A60DA70DA80DA90DA00B342FA81BC4
:100E78003E2F3F2F452F023025020318442F452FC0
:100E8800302F2518482F492F512FFF30A605FF3046
:100E9800A7057F30A805FF30A9050310A50C250874
:100EA800A000A101A201A30118300310A00DA10DFB
:100EB800A20DA30DFF3E031D592F2008A6042108EB
:100EC800A7042208A8042308A904240803196D2FDD
:100ED8006E2F732FF61F712F722F732FA9172908E2
:100EE800F6002808F5002708F4002608F300080093
:100EF800031083160313260D270DA8002808F800F1
:100F08007808031D882F892F922F0030A700003002
:100F1800A6000030A5000030A400F72F2408A80080
:100F28002508A9002608AA002708AB001F300310CF
:100F3800AB0CAA0CA90CA80CFF3E031D9B2F28087C
:100F4800AC002C08F700A617FF30A405FF30A50554
:100F5800FF30A6050030A7059630F802F81FB52F18
:100F6800B62FD02F7808803A973E0318BC2FBD2F94
:100F7800BE2F892F01300310A70CA60CA50CA40CBA
:100F8800FF3E031DBF2F0130A8002808F807031DE6
:100F9800CE2FCF2FBE2FE72F20307802031CD52F5E
:100FA800D62FE22F892F0130A8000310A40DA50D1C
:100FB800A60DA70DA80BD92F0130F8027808031D3C
:100FC800E62FE72FD72F77080319EB2FEC2FF72FF2
:100FD800A409A509A609A709A40A0319A50A0319BA
:080FE800A60A0319A70A08007C
:10180A0083120313A400A001A1017308F500F601D5
:10181A007508A2007608A300241C142C152C1B2C76
:10182A002208A0070318A10A2308A1070130031000
:10183A00A20DA30DFF3E031D1C2C0310A40C2408AB
:10184A00031D282C292C112C2108F4002008F30050
:10185A0008000A128A15D6240A128A158316031357
:10186A0039083D0603193A2C3B2C332C3D08013923
:10187A00B4003408BC003C08031D442C452C4C2CF5
:10188A0000300A128A1597240A128A15572C3C032B
:10189A00031D502C512C572C00300A128A15202572
:1018AA000A128A15831603133D08B4003408B900D6
:1018BA00332C0A128A110C28831203138C1D662CEE
:1018CA00672C902C1412141B6B2C6C2C702C941FEC
:1018DA006F2C702C742C130814139413141683167B
:1018EA000313941A792C7A2C8E2C14197D2C7E2CA5
:1018FA008E2C1410141C822C832C7F2C831203131D
:10190A001308F000700883160313BD008312031333
:10191A00141683128C1172088A00710E8300FE0E4F
:10192A007E0E090083160313B300AD017F308312C4
:10193A000313EE006E0883160313AE000030AF00E7
:10194A00B0007D30B1000030B20033080A128A15A7
:10195A006D250A128A15831603132E08B8002D085E
:10196A00B700380883120313EF00831603133708EE
:10197A0083120313EE000310EF0CEE0C0310EF0CAE
:10198A00EE0C6E0895008316031337080339831289
:10199A000313EE00EE0E17086E06CF396E06970097
:1019AA0008008316031788018901831603130F0899
:1019BA008F3940388F000F148312031387011830B0
:1019CA00831603138700071587141F3092008312AA
:1019DA00031397019D013F3097051708F0390C381A
:1019EA0097001D08F0390C389D0008309500CF305B
:1019FA00970508309B001D129D128C10033092042B
:101A0A0012158C1C092D0A2D062D8C108316031312
:101A1A0007118710103093009417831203131408C8
:101A2A00F0390638940094168C11831603138C151A
:101A3A000B178B17080083160313B300AD017F3011
:101A4A0083120313EE006E0883160313AE000030F0
:101A5A00AF00B0007D30B1000030B20033080A1286
:101A6A008A156D250A128A15831603132E08B600E5
:101A7A002D08B500360883120313EF0083160313EB
:101A8A00350883120313EE000310EF0CEE0C03105B
:101A9A00EF0CEE0C6E089B00831603133508013910
:101AAA0083120313EE00EE0E1D086E06EF396E0662
:101ABA009D00831603133508023983120313EE00BF
:101ACA00EE0EEE0D1D086E06DF396E069D0008004B
:101ADA00F900831603132F08F3003008F400F50108
:101AEA00F60100300A128A11C0260A128A157608EF
:101AFA0083120313E5007508E4007408E300730811
:101B0A00E200831603132F083102F3003008031C86
:101B1A00300A3202F400F501F60100300A128A1185
:101B2A00C0260A128A15760883120313B1007508B3
:101B3A00B0007408AF007308AE00831603132D08B3
:101B4A002E02F300F401031CF403F501F41BF50360
:101B5A007508F60001300A128A11C0260A128A157F
:101B6A00760883120313AD007508AC007408AB0045
:101B7A007308AA000A128A1523260A128A158312E2
:101B8A0003132D08CB002C08CA002B08C9002A0809
:101B9A00C800831603132D087902F300F401031C0D
:101BAA00F403F501F41BF5037508F60001300A1277
:101BBA008A11C0260A128A15760883120313C700EF
:101BCA007508C6007408C5007308C4000A128A1191
:101BDA001F200A128A15831203134708E1004608D8
:101BEA00E0004508DF004408DE000A128A1180235B
:101BFA000A128A1583120313610883160313A700B6
:101C0A0083120313600883160313A60083120313B7
:101C1A005F0883160313A500831203135E08831655
:101C2A000313A4000A128A117C270A128A15831642
:101C3A0003132508AE002408AD000800831203131D
:101C4A0031088039B2003208BB003108B2003207CD
:101C5A00B3003308C200B01F332E342E352E42147F
:101C6A0042080319392E3A2E4A2E420A031D3E2EE5
:101C7A003F2E472E0030B1000030B0000030AF00D8
:101C8A000030AE00B017B101522E0030B100003062
:101C9A00B0000030AF000030AE002D088039B2002D
:101CAA003208BB062D08B2003207B3003308C3005E
:101CBA00AC1F602E612E622E431443080319662E50
:101CCA00672E772E430A031D6B2E6C2E742E00305E
:101CDA00AD000030AC000030AB000030AA00AC17F9
:101CEA00AD017F2E0030AD000030AC000030AB00FB
:101CFA000030AA002D082C042B042A04031D862E6A
:101D0A00872EA02E0030B1000030B0000030AF00A6
:101D1A000030AE008030B0047F30B1043B08B2001E
:101D2A003208B1043108AD003008AC002F08AB000E
:101D3A002E08AA00FF2F4208031DA42EA52EAE2EA0
:101D4A000030AD000030AC000030AB000030AA001B
:101D5A00FF2F4208B200B3013308B500430832022C
:101D6A00B400031CB50334087F3EBC0035080318D1
:101D7A00013E003EBD003108BA003008B9002F0804
:101D8A00B8002E08B7000030B1000030B0000030B3
:101D9A00AF000030AE000030C1000030C00000309B
:101DAA00BF000030BE00C301242F43080319DE2EF2
:101DBA00DF2EFF2E0130B2000310B70DB80DB90D9A
:101DCA00BA0DB20BE12E0130B2000310AE0DAF0D09
:101DDA00B00DB10DB20BEA2EC11FF42EF52EF62E60
:101DEA002E140130B2000310BE0DBF0DC00DC10D7F
:101DFA00B20BF82E2D083A02031D0D2F2C083902BA
:101E0A00031D0D2F2B083802031D0D2F2A08370238
:101E1A00031C102F112F202F41172A08B7022B0855
:101E2A00031C2B0FB8022C08031C2C0FB9022D0817
:101E3A00031C2D0FBA020130B2003208C3071A3050
:101E4A004302031C292F2A2FDA2E3A0839043804B0
:101E5A0037040319312F322F512F3E14512F0130DD
:101E6A00B2000310AE0DAF0DB00DB10DB20B362F8F
:101E7A00C11F402F412F422F2E140130B2000310F0
:101E8A00BE0DBF0DC00DC10DB20B442FFF30BC07F4
:101E9A000318BD0AFF30BD07B01F542F552F342F2A
:101EAA00C301C11F592F5A2F762FFF303E05B200AA
:101EBA00FF303F05B300FF304005B4007F304105D5
:101ECA00B500350834043304320403196D2F6E2F1C
:101EDA00712FC301C30A762F2E1C742F752F762FEC
:101EEA006E2F430803197A2F7B2FAC2F0130AE07D0
:101EFA00003003180130AF07003003180130B00773
:101F0A00003003180130B107311C8C2F8D2FAC2FF4
:101F1A002E08B2002F08B3003008B4003108B5000B
:101F2A000130B600350DB50CB40CB30CB20CB60BBF
:101F3A00972F3508B1003408B0003308AF003208D3
:101F4A00AE000130BC070318BD0A0030BD073D08CA
:101F5A00803AFF0080307F02031DB52FFF303C021C
:101F6A00031CB82FB92FC72FFF3083120313BC00ED
:101F7A000030BD000030B1000030B0000030AF00CA
:101F8A000030AE00831203133D08803AFF00803010
:101F9A007F02031DD22F01303C020318D52FD62F02
:101FAA00E32F83120313BC01BD010030B1000030DE
:101FBA00B0000030AF000030AE00BB018312031343
:101FCA003C08B2003208C200421CEC2FED2FEF2F62
:101FDA00B017F32F7F30B2003208B0054208B200C2
:101FEA000310320CB3003308B1003B08B2003208C8
:061FFA00B104972E08005F
:08400000FF3FFF3FFF3FFF3FC0
:04400E00D420FF3F7C
:00000001FF
