:060000000A128A110C280F
:10000800FE00030EF1000A08F2000A128A115428B1
:100018000A128A110F28F40183010A128A117B2817
:1000280083160317890101308800831603130F080C
:100038008F3940388F000F14013085008312031365
:10004800850188018316031388018701831203132E
:1000580087013F309F05831603131F129F16C33075
:10006800831203139F05831603139F13831203132D
:100078001F140330F300F30B3F28831603130614F1
:10008800811301309500013096008B150B108312F7
:1000980003130C13831603130C170B178B17080085
:1000A8000B1C57285828612883120313061C5D2847
:1000B8005E285F2863000B107428831203130C1F3B
:1000C8006628672874281F0CF000700C0F39003A56
:1000D800031D6F28702873281E0888000B100C1346
:1000E80072088A00710E8300FE0E7E0E09000A1245
:1000F8008A1114200A128A11831203139F18852863
:0E010800862880289F1480280A128A110C284D
:08400000FF3FFF3FFF3FFF3FC0
:04400E00D420FF3F7C
:00000001FF
