:060000000A128A110C280F
:10000800FE00030EF3000A08F4000A128A115528AC
:100018000A128A110F28F601F70183010A128A11C0
:100028008228831603178901013088008316031379
:100038000F088F3940388F000F1401308500831264
:10004800031385018801831603138801870183122E
:10005800031387013F309F05831603131F129F1652
:10006800C330831203139F05831603139F13831250
:1000780003131F140330F500F50B402883160313F0
:100088000614811301309500013096008B150B1072
:10009800831203130C13831603130C170B178B17F8
:1000A8000800831203130C1F5A285B2868281F0CAA
:1000B800F200720C0F39003A031D63286428662881
:1000C8001E0887000C137B280B1C6B286C287B28C8
:1000D80006186F2870287A280708F2007208F000BE
:1000E80005300A128A119B200A128A110B10740813
:1000F8008A00730E8300FE0E7E0E09000A128A1112
:1001080015200A128A11831203139F188C288D2830
:100118008E289F1405300A128A11B0200A128A11FB
:1001280083120313880087280A128A110C28F10009
:100138007108831203178D0070088C00831603174B
:100148008C130C158B1355308D00AA308D008C1430
:100158000C110B108B170800F50075088312031794
:100168008D00831603178C130C14831203170C08C5
:0201780008007D
:08400000FF3FFF3FFF3FFF3FC0
:04400E00D420FF3F7C
:00000001FF
