:060000000A128A110C280F
:10000800FE00030EF1000A08F2000A128A15892C74
:100018000A128A110F28FA0183160313B301B401D7
:10002800B50183010A128A15DA2C831203134708D3
:100038008039CC004C08D1004708CC004C07CD00D3
:100048004D08D700C61F29282A282B2857145708D7
:1000580003192F2830283F28570A031D342835282C
:100068003D280030C7000030C6000030C500003011
:10007800C400C61747280030C7000030C60000304B
:10008800C5000030C4004B088039CC004C08D106AC
:100098004B08CC004C07CD004D08D200CA1F55288C
:1000A800562857285214520803195B285C286B28D5
:1000B800520A031D6028612869280030CB000030EF
:1000C800CA000030C9000030C800CA1773280030C1
:1000D800CB000030CA000030C9000030C800520808
:1000E8000319772878287D285708031D7C287D2840
:1000F80086280030C7000030C6000030C500003038
:10010800C400792B4408CC004C08F3004A080A12B2
:100118008A15B1240A128A11740883120313DD00A8
:100128007308DC005C08CC00CD01CE01CF014F087C
:10013800D6004E08D5004D08D4004C08D3005D0801
:10014800CC00CD01CE01CF014F08DB004E08DA000C
:100158004D08D9004C08D8004508CC004C08F300DD
:1001680049080A128A15B1240A128A1174088312DE
:100178000313DD007308DC005C08CC00CD01CE0160
:10018800CF014C08D3074D0803110318013E03198A
:10019800CE28D4074E0803110318013E0319D528A9
:1001A800D5074F0803110318013E0319DC28D607A9
:1001B8005D08CC00CD01CE01CF014C08D8074D0811
:1001C80003110318013E0319EA28D9074E08031141
:1001D8000318013E0319F128DA074F080311031821
:1001E800013E0319F828DB074608CC004C08F30049
:1001F80048080A128A15B1240A128A11740883124F
:100208000313DD007308DC005C08CC00CD01CE01CF
:10021800CF014C08D3074D0803110318013E0319F9
:100228001629D4074E0803110318013E03191D2986
:10023800D5074F0803110318013E03192429D607CF
:100248005D08CC00CD01CE01CF014C08D8074D0880
:1002580003110318013E03193229D9074E08031167
:100268000318013E03193929DA074F080311031847
:10027800013E03194029DB070830CC000310D30DD9
:10028800D40DD50DD60DCC0B42294508CC004C0811
:10029800F30048080A128A15B1240A128A11740850
:1002A80083120313DD007308DC005C08CC005D08D2
:1002B800CD00CE01CF014C08D3074D080311031818
:1002C800013E03196829D4074E0803110318013E9B
:1002D80003196F29D5074F0803110318013E0319A5
:1002E8007629D6074408CC004C08F30049080A12BE
:1002F8008A15B1240A128A11740883120313DD00C7
:100308007308DC005C08CC005D08CD00CE01CF018D
:100318004C08D3074D0803110318013E031995290A
:10032800D4074E0803110318013E03199C29D50769
:100338004F0803110318013E0319A329D6070830F3
:10034800CC000310D30DD40DD50DD60DCC0BA5299B
:100358004408CC004C08F30048080A128A15B12456
:100368000A128A11740883120313DD007308DC0073
:100378005C08CC005D08CD00CE01CF014C08D30746
:100388004D0803110318013E0319CB29D4074E0861
:1003980003110318013E0319D229D5074F08031189
:1003A8000318013E0319D929D6074508CC004C0883
:1003B800F3004A080A128A15B1240A128A1174082D
:1003C80083120313DD007308DC005C08CC005D08B1
:1003D800CD00CE01CF014C08D8074D0803110318F2
:1003E800013E0319F829D9074E0803110318013EE5
:1003F8000319FF29DA074F0803110318013E0319EF
:10040800062ADB074608CC004C08F30049080A1204
:100418008A15B1240A128A11740883120313DD00A5
:100428007308DC005C08CC005D08CD00CE01CF016C
:100438004C08D8074D0803110318013E0319252A53
:10044800D9074E0803110318013E03192C2ADA07AD
:100458004F0803110318013E0319332ADB07460826
:10046800CC004C08F3004A080A128A15B1240A1273
:100478008A11740883120313DD007308DC005C081A
:10048800CC005D08CD00CE01CF0108300310CC0DA3
:10049800CD0DCE0DCF0DFF3E031D4A2A4C08D807BF
:1004A8004D0803110318013E03195B2AD9074E08AA
:1004B80003110318013E0319622ADA074F080311D2
:1004C8000318013E0319692ADB075308CC005408B6
:1004D800CD005508CE005608CF0018300310CF0CB9
:1004E800CE0CCD0CCC0CFF3E031D722A4C08D8074D
:1004F8004D0803110318013E0319832AD9074E0832
:1005080003110318013E03198A2ADA074F08031159
:100518000318013E0319912ADB070830CC000310A9
:10052800D30DD40DD50DD60DCC0B932A57085207F1
:10053800CC00CD01CD0D4C08823EDC004D080318DF
:10054800013EFF3EDD00C52A0130CC000310D80D66
:10055800D90DDA0DDB0DCC0BAA2AD61FB42AB52A81
:10056800B62A58140130CC000310D30DD40DD50D84
:10057800D60DCC0BB82AFF30DC070318DD0AFF3094
:10058800DD07DA1FC82AC92AA82AD201D61FCD2A10
:10059800CE2AEA2AFF305305CC00FF305405CD009F
:1005A800FF305505CE007F305605CF004F084E046A
:1005B8004D044C040319E12AE22AE52AD201D20AA1
:1005C800EA2A581CE82AE92AEA2AE22A52080319E0
:1005D800EE2AEF2A202B0130D8070030031801300B
:1005E800D907003003180130DA070030031801304A
:1005F800DB075B1C002B012B202B5808CC0059086B
:10060800CD005A08CE005B08CF000130D0004F0D56
:10061800CF0CCE0CCD0CCC0CD00B0B2B4F08DB0029
:100628004E08DA004D08D9004C08D8000130DC0724
:100638000318DD0A0030DD075D08803AFF008030CE
:100648007F02031D292BFF305C02031C2C2B2D2B52
:10065800382B7F3083120313DB008030DA00003040
:10066800D9000030D8006D2B831203135D08803A3F
:10067800FF0080307F02031D432B01305C0203180A
:10068800462B472B532B003083120313DB0000301B
:10069800DA000030D9000030D800D1016D2B831268
:1006A80003135C08CC004C08D700FF30D805FF3096
:1006B800D9057F30DA050030DB05571C642B652B24
:1006C800662BDA175708CC0003104C0CCD004D08E8
:1006D800DB005108CC004C08DB045B08C7005A0853
:1006E800C6005908C5005808C4000800831203133F
:1006F80061088039E600660883160313A000831298
:1007080003136108E6006607E7006708831603130A
:10071800A20083120313E01F922B932B962B8316B0
:100728000313221483160313220803199C2B9D2BF1
:10073800B02B220A031DA12BA22BAC2B0030831255
:100748000313E1000030E0000030DF000030DE007D
:100758008312E017E101BA2B003083120313E10082
:100768000030E0000030DF000030DE00650880392E
:10077800E600660883160313A10021082006031962
:10078800C62BC72BC82B2017831203136508E60056
:100798006607E700670883160313A1008312031393
:1007A800E41FD72BD82BDB2B8316031321148316B6
:1007B800031321080319E12BE22BF52B210A031D52
:1007C800E62BE72BF12B003083120313E5000030F2
:1007D800E4000030E3000030E2008312E417E50192
:1007E800FF2B003083120313E5000030E4000030D3
:1007F800E3000030E20083160313220821020318E5
:10080800062C072C7D2C201F0A2C0B2C132C803037
:1008180083120313E600660883160313A006220852
:1008280083120313E600660883160313A300210846
:1008380083120313E600660883160313A200230835
:1008480083120313E600660883160313A1008312BC
:1008580003135E08E600660883160313A3008312D9
:1008680003136208E6006608DE00831603132308F4
:1008780083120313E6006608E2005F08E6006608D4
:1008880083160313A300831203136308E6006608A4
:10089800DF0083160313230883120313E600660898
:1008A800E3006008E600660883160313A3008312BA
:1008B80003136408E6006608E000831603132308A0
:1008C80083120313E6006608E4006108E600660880
:1008D80083160313A300831203136508E600660852
:1008E800E10083160313230883120313E600660846
:1008F800E50083160313A301210883120313E600FE
:10090800E7016708E900831603132208831203131B
:100918006602E800031CE9036908803AFF0080309A
:100928007F02031D992C1A306802031C9C2C9D2CF5
:10093800EF2C83120313610860045F045E04031D37
:10094800A62CA82C0130A92C0030E60066088316D6
:100958000313A300003083120313E1000030E0000A
:100968000030DF000030DE008316031321088312F5
:100978000313E600660883160313A200F72C231C52
:10098800C62CC72CD42C230883120313E6000310AB
:10099800660C0138E700670883160313A300D62CFA
:1009A8000310A30C831203135E1CDB2CDC2CDF2C3E
:1009B80083160313A31701308312E600610DE10CBF
:1009C800E00CDF0CDE0CE60BE22C0130E6006608DA
:1009D80083160313A2078316031321082202031C9C
:1009E800F62CF72CC32C201BFA2CFB2C572D220895
:1009F800031DFF2C002D0B2D003083120313E10083
:100A08000030E0000030DF000030DE00B92E831235
:100A180003136208DE07630803110318013E031974
:100A2800162DDF07640803110318013E03191D2D55
:100A3800E007650803110318013E0319242DE10797
:100A4800611C272D282D1D2E83160313231C2D2DE5
:100A58002E2D3B2D230883120313E6000310660C8A
:100A68000138E700670883160313A3003D2D031020
:100A7800A30C831203135E1C422D432D462D8316AF
:100A88000313A31701308312E600610DE10CE00C9B
:100A9800DF0CDE0CE60B492D0130E60066088316F4
:100AA8000313A2071D2E831203136108803AFF0067
:100AB8006508803A7F02031D6B2D64086002031DE0
:100AC8006B2D63085F02031D6B2D62085E0203181D
:100AD8006E2D6F2DCB2DFF30E600FF30E700FF3085
:100AE800E800FF30E9006208EA006308EB006408E8
:100AF800EC006508ED005E08EA025F08031C5F0F62
:100B0800862D872DEB026008031C600F8C2D8D2D20
:100B1800EC026108031C610F922D932DED026A0807
:100B2800E6076B0803186B0F9A2D9B2DE7076C08D7
:100B380003186C0FA02DA12DE8076D0803186D0A86
:100B4800E9076908E1006808E0006708DF0066084F
:100B5800DE008030E600660883160313A006A309AA
:100B6800A30A2308031DB92DBA2DD92D01308312EC
:100B78000313DE07003003180130DF0700300318C5
:100B88000130E007003003180130E107D92D620871
:100B9800DE026308031C630FDF026408031C640F92
:100BA800E0026508031C650FE10283126108600416
:100BB8005F045E04031DE12DE22D182E8316031336
:100BC8002308031DE82DE92D182E00308312031386
:100BD800E1000030E0000030DF000030DE00B92E18
:100BE8000130E6000310DE0DDF0DE00DE10DE60B30
:100BF800F62D83160313A31F022E032E062E83122F
:100C080003135E1483160313231C0B2E0C2E0F2EB6
:100C18000314A30D112E0310A30D22080319152E7A
:100C2800162E182E0130A2028312E01F1C2E1D2E34
:100C3800F42D83160313A101A31F232E242E362E71
:100C480023087F390319292E2A2E2F2E83160313E2
:100C5800A101A10A362E831203135E1C342E352EF1
:100C6800362E2A2E83160313210803193C2E3D2EF7
:100C7800792E013083120313DE0700300318013088
:100C8800DF07003003180130E00700300318013097
:100C9800E107611C502E512E792E5E08E6005F0890
:100CA800E7006008E8006108E9000130EA00690D22
:100CB800E90CE80CE70CE60CEA0B5B2E6908E1008E
:100CC8006808E0006708DF006608DE008316031383
:100CD800220A0319702E712E792E01308312031304
:100CE800E600660883160313A20783160313220A75
:100CF80003197F2E802E852E2208031D842E852E13
:100D0800972E003083120313E1000030E00000301A
:100D1800DF000030DE00831603132208031D952E22
:100D2800962E972EA001221C9A2E9B2E9F2E831260
:100D38000313E017A52E7F3083120313E60066081D
:100D4800E00583160313220883120313E600031039
:100D5800660CE7006708E10083160313A01FB52E91
:100D6800B62EB92E83120313E1170800831203135A
:100D7800A40024080319C12EC22ED62EF61FC52E94
:100D8800C62ED62E7309A6007409A7007509A800F7
:100D98007609A900A60A0319A70A0319A80A0319BC
:100DA800A90ADE2E7608A9007508A8007408A7000D
:100DB8007308A6007608750474047304031DE52EF1
:100DC800E62EEF2E0030F6000030F5000030F4007B
:100DD8000030F300752F9630A0002008A500012FE1
:100DE8000130A0002008A50701300310A90CA80CA9
:100DF800A70CA60CFF3E031DF92EFE302905031D86
:100E0800062F072FF42E232F0130A0002008A50756
:100E18000130A607003003180130A7070030031877
:100E28000130A807003003180130A907013003106A
:100E3800A90CA80CA70CA60CFF3E031D1B2FFF3006
:100E48002905031D282F292F082F352F0130A5022A
:100E58000130A0000310A60DA70DA80DA90DA00B29
:100E68002E2FA81B382F392F3F2F023025020318A9
:100E78003E2F3F2F2A2F2518422F432F4B2FFF306D
:100E8800A605FF30A7057F30A805FF30A905031088
:100E9800A50C2508A000A101A201A3011830031088
:100EA800A00DA10DA20DA30DFF3E031D532F200879
:100EB800A6042108A7042208A8042308A9042408D2
:100EC8000319672F682F6D2FF61F6B2F6C2F6D2F4F
:100ED800A9172908F6002808F5002708F4002608AD
:100EE800F3000800031083160313260D270DA8002E
:100EF8002808F8007808031D822F832F8C2F0030D4
:100F0800A7000030A6000030A5000030A400F12F93
:100F18002408A8002508A9002608AA002708AB006D
:100F28001F300310AB0CAA0CA90CA80CFF3E031D24
:100F3800952F2808AC002C08F700A617FF30A40549
:100F4800FF30A505FF30A6050030A7059630F8024A
:100F5800F81FAF2FB02FCA2F7808803A973E031892
:100F6800B62FB72FB82F832F01300310A70CA60C6C
:100F7800A50CA40CFF3E031DB92F0130A8002808BA
:100F8800F807031DC82FC92FB82FE12F203078028A
:100F9800031CCF2FD02FDC2F832F0130A800031084
:100FA800A40DA50DA60DA70DA80BD32F0130F8028F
:100FB8007808031DE02FE12FD12F77080319E52FBB
:100FC800E62FF12FA409A509A609A709A40A031960
:0C0FD800A50A0319A60A0319A70A0800BD
:10191200831203138C1D8E2C8F2CAA2CDD30930086
:101922005330F000F00B932C83160313141C9A2CE3
:101932009B2C952C831203131308F0007008831656
:101942000313B5005330F000F00BA52C83120313E0
:101952008C1172088A00710E8300FE0E7E0E090041
:1019620083120313A400A001A1017308F500F6017C
:101972007508A2007608A300241CC02CC12CC72C19
:101982002208A0070318A10A2308A10701300310A7
:10199200A20DA30DFF3E031DC82C0310A40C2408A6
:1019A200031DD42CD52CBD2C2108F4002008F300F3
:1019B20008000A128A1521250A128A1583160313B2
:1019C200AD01FF3083120313EE006E08831603137A
:1019D200AE003E30AF000030B0007D30B1000030CC
:1019E200B20035080A128A156D250A128A15831665
:1019F20003132E08B4002D08B30034088312031316
:101A0200EF0083160313330883120313EE0003104F
:101A1200EF0CEE0C0310EF0CEE0C6E089500831623
:101A220003133308033983120313EE00EE0E170873
:101A32006E06CF396E069700DF2C0A128A110C2827
:101A4200831603178901880120308316031385004A
:101A52008312031385011830831603138700831240
:101A620003138701831603130F088F3940388F0041
:101A72000F14831203131408F0390438940014125B
:101A82009416831603131417941307159B309200B0
:101A92008312031397013F3097051708F0390C386A
:101AA20097001F3095001708CF39103897008C1017
:101AB2000330920412158C1C5F2D602D5C2D8C104E
:101AC200831603138710831203138C1183160313D7
:101AD2008C150B178B170800F900831603132F08B8
:101AE200F3003008F400F501F60100300A128A1101
:101AF200BA260A128A15760883120313E5007508BE
:101B0200E4007408E3007308E200831603132F084D
:101B12003102F3003008031C300A3202F400F501EE
:101B2200F60100300A128A11BA260A128A157608BC
:101B320083120313B1007508B0007408AF00730874
:101B4200AE00831603132D082E02F300F401031CCA
:101B5200F403F501F41BF5037508F60001300A12CF
:101B62008A11BA260A128A15760883120313AD0067
:101B72007508AC007408AB007308AA000A128A1533
:101B820023260A128A15831203132D08CB002C0870
:101B9200CA002B08C9002A08C800831603132D089F
:101BA2007902F300F401031CF403F501F41BF503BD
:101BB2007508F60001300A128A11BA260A128A152D
:101BC200760883120313C7007508C6007408C5009F
:101BD2007308C4000A128A1119200A128A15831284
:101BE20003134708E1004608E0004508DF00440807
:101BF200DE000A128A117A230A128A15831203134B
:101C0200610883160313A700831203136008831667
:101C12000313A600831203135F0883160313A500A0
:101C2200831203135E0883160313A4000A128A1197
:101C320076270A128A15831603132508AE00240894
:101C4200AD0008008312031331088039B200320854
:101C5200BB003108B2003207B3003308C200B01F24
:101C6200332E342E352E421442080319392E3A2EC1
:101C72004A2E420A031D3E2E3F2E472E0030B1004F
:101C82000030B0000030AF000030AE00B017B1013C
:101C9200522E0030B1000030B0000030AF000030F2
:101CA200AE002D088039B2003208BB062D08B20002
:101CB2003207B3003308C300AC1F602E612E622EC0
:101CC200431443080319662E672E772E430A031D19
:101CD2006B2E6C2E742E0030AD000030AC00003044
:101CE200AB000030AA00AC17AD017F2E0030AD0072
:101CF2000030AC000030AB000030AA002D082C04EC
:101D02002B042A04031D862E872EA02E0030B1003C
:101D12000030B0000030AF000030AE008030B004C0
:101D22007F30B1043B08B2003208B1043108AD0083
:101D32003008AC002F08AB002E08AA00FF2F420883
:101D4200031DA42EA52EAE2E0030AD000030AC0037
:101D52000030AB000030AA00FF2F4208B200B301EE
:101D62003308B50043083202B400031CB50334083B
:101D72007F3EBC0035080318013E003EBD0031081D
:101D8200BA003008B9002F08B8002E08B70000309A
:101D9200B1000030B0000030AF000030AE000030C3
:101DA200C1000030C0000030BF000030BE00C301DF
:101DB200242F43080319DE2EDF2EFF2E0130B2003E
:101DC2000310B70DB80DB90DBA0DB20BE12E0130EB
:101DD200B2000310AE0DAF0DB00DB10DB20BEA2E75
:101DE200C11FF42EF52EF62E2E140130B200031070
:101DF200BE0DBF0DC00DC10DB20BF82E2D083A025B
:101E0200031D0D2F2C083902031D0D2F2B0838023C
:101E1200031D0D2F2A083702031C102F112F202F0C
:101E220041172A08B7022B08031C2B0FB8022C08F3
:101E3200031C2C0FB9022D08031C2D0FBA0201300E
:101E4200B2003208C3071A304302031C292F2A2F7B
:101E5200DA2E3A083904380437040319312F322FA5
:101E6200512F3E14512F0130B2000310AE0DAF0DB1
:101E7200B00DB10DB20B362FC11F402F412F422F93
:101E82002E140130B2000310BE0DBF0DC00DC10DE6
:101E9200B20B442FFF30BC070318BD0AFF30BD0749
:101EA200B01F542F552F342FC301C11F592F5A2F42
:101EB200762FFF303E05B200FF303F05B300FF3002
:101EC2004005B4007F304105B500350834043304C1
:101ED200320403196D2F6E2F712FC301C30A762F9F
:101EE2002E1C742F752F762F6E2F430803197A2F0D
:101EF2007B2FAC2F0130AE07003003180130AF0743
:101F0200003003180130B007003003180130B10768
:101F1200311C8C2F8D2FAC2F2E08B2002F08B3004E
:101F22003008B4003108B5000130B600350DB50CEB
:101F3200B40CB30CB20CB60B972F3508B1003408B1
:101F4200B0003308AF003208AE000130BC070318FE
:101F5200BD0A0030BD073D08803AFF0080307F0295
:101F6200031DB52FFF303C02031CB82FB92FC72F1A
:101F7200FF3083120313BC000030BD000030B100FB
:101F82000030B0000030AF000030AE008312031307
:101F92003D08803AFF0080307F02031DD22F0130BE
:101FA2003C020318D52FD62FE32F83120313BC0153
:101FB200BD010030B1000030B0000030AF00003091
:101FC200AE00BB01831203133C08B2003208C20008
:101FD200421CEC2FED2FEF2FB017F32F7F30B20002
:101FE2003208B0054208B2000310320CB3003308C5
:0E1FF200B1003B08B2003208B104972E08007F
:08400000FF3FFF3FFF3FFF3FC0
:04400E00D420FF3F7C
:00000001FF
