:060000000A128A11142906
:10000800F000030EF1000B1820200B1912200C1819
:100018001920710E8300F00E700E0900031383126D
:10002800FE3081000B118621080085308F00EE30EC
:100038008E000C10A00A080003138312061DA60ADE
:060048000B101822080055
:100200008A010A140F398207FC346034DA34F2347C
:100210006634B634BE34E034FE34F634EE343E3464
:100220009C347A349E348E34232142214921562134
:1002300064210313831279210F22A321B621C72140
:10024000E021F7211B290317831688018901031375
:10025000831687018501890108108810081188110B
:100260000614861406158113151495141515031319
:1002700083128501870188018901A601A001A101DE
:10028000A3010800031383160F178F120F120F1408
:1002900008000313831681128111011581140114C2
:1002A00003138312FE3081000B1108000313831225
:1002B00010139016101690119010101485308F00A6
:1002C000EE308E000C100800031383160C14031379
:1002D00083161614961416150313831206080313B7
:1002E00083120B178B178B150B100B118B160C1021
:1002F000080028080021AC0029080021AD002A08C8
:100300000021AE002B080021AF0008008801A71CC7
:100310008F29271C9429271D9929A71D9E292C0860
:1003200087000814A71408002D08870088142714D4
:10033000080027152E08870008150800A7012F08B8
:100340008700881508002008A5003C30A502031D81
:10035000AB29A001A10AA5012108A5000A30A50228
:10036000031DB429A101A20AA50108002208A500C5
:100370000630A502031DBE29A201A30A2308A50079
:100380000A30A502031DC629A301A40A08002408F7
:10039000A5000230A5020319CE2908002308A500F4
:1003A0000430A5020319D5210800A001A101A30171
:1003B000A101A201A401A801A901AA01AB010800A1
:1003C0002108A500FF30A502031CEA29A101A20310
:1003D0000930A107A5012308A500FF30A502031CD1
:1003E000F529A301A4030930A307A50108002408E7
:1003F000A500FF30A502031C032AA401A3010230BB
:10040000A4070330A307A5012208A500FF30A50219
:10041000031C0D2AA2010530A207A501080021082E
:10042000A8002208A9002308AA002408AB0008009D
:100430002608013C0319342A2608023C0319282AFD
:100440002608033C0319A6010910891009110800A8
:1004500003138312091089140911A001061CA30AB1
:10046000861CA3030B1008000313831209148910C0
:100470000911A001061CA10A861CA1030B1008008B
:04400E00D420FF3F7C
:00000001FF
