:060000000A128A110C280F
:10000800FE00030EF6000A08F7000A128A111928E2
:100018000A128A110F28F801F901FA01FB01FC0103
:10002800FD0183010A128A1144290B1C1C281D2872
:10003800ED288312031306182228232827280130C5
:10004800F4007408FD0702307D02031C2C282D28BB
:100058002E28FD017D08031D322833289128091414
:1000680089100911861839283A2862287C08F40072
:100078007408F00001300A128A1137220A128A1114
:100088007B08F4007408F00002300A128A11372243
:100098000A128A117A08F4007408F00003300A1270
:1000A8008A1137220A128A117908F4007408F000BC
:1000B80004300A128A1137220A128A118312031392
:1000C800061967286828EB287C08F4007408F000F3
:1000D80005300A128A1137220A128A117B08F400A5
:1000E8007408F00006300A128A1137220A128A119F
:1000F8007A08F4007408F00007300A128A113722CF
:100108000A128A117908F4007408F00008300A12FB
:100118008A1137220A128A11EB287D03031D9528BC
:100128009628EB2809108914091186189C289D28FF
:10013800C12801300A128A1157220A128A11F400C2
:100148007408FC0002300A128A1157220A128A1116
:10015800F4007408FB0003300A128A1157220A12AD
:100168008A11F4007408FA0004300A128A1157221E
:100178000A128A11F4007408F9008312031306198D
:10018800C628C728EB2805300A128A1157220A12F6
:100198008A11F4007408FC0006300A128A115722EA
:1001A8000A128A11F4007408FB0007300A128A1137
:1001B80057220A128A11F4007408FA0008300A1249
:1001C8008A1157220A128A11F4007408F9000B10D8
:1001D8003D29831203130C1FF228F3283D297D08BB
:1001E800031DF728F8283C291F0CF400740C0F395C
:1001F800003A031D0029012909291E08F4000310EB
:10020800740CF5007508FC003C291F0CF400740CF4
:100218000F39013A031D112912291A291E08F40061
:100228000310740CF5007508FB003C291F0CF40042
:10023800740C0F39023A031D222923292B291E0881
:10024800F4000310740CF5007508FA003C291F0C23
:10025800F400740C0F39033A031D332934293C295F
:100268001E08F4000310740CF5007508F9003C2909
:100278000C1377088A00760E8300FE0E7E0E0900A6
:100288000A128A11E2210A128A11831203139F1893
:100298004E294F298F291F0CA100210C0F39003A34
:1002A800031D572958295D291F08C33904389F00A1
:1002B80085291F0CA100210C0F39013A031D65295E
:1002C80066296B291F08C33908389F0085291F0C28
:1002D800A100210C0F39023A031D732974297929C9
:1002E8001F08C3390C389F0085291F0CA100210C59
:1002F8000F39033A031D812982298529C3309F05B7
:100308008529023083120313A100A10B892900005B
:10031800831203139F141030A1002108F8000A1259
:100328008A1178220A128A1110300A128A1164225C
:100338000A128A117C0883120313A10021070A12EA
:100348008A1164220A128A110A128A116F220A1269
:100358008A11043083120313A2003D30A100A10BBF
:10036800B329A20BB329103083120313A10021086B
:10037800F8000A128A1178220A128A1110300A1219
:100388008A1164220A128A1103147B0D0A128A1137
:1003980064220A128A110A128A116F220A128A1119
:1003A800043083120313A2003D30A100A10BDA2907
:1003B800A20BDA2949290A128A110C280F30831650
:1003C800031788008901831603130F088F394038F3
:1003D8008F000F140F3085008312031385018701E6
:1003E80018308316031387008312031388018316BA
:1003F8000313880189018312031389013F309F0584
:10040800831603131F129F12C330831203139F0511
:10041800831603139F13831203131F1402308312CE
:100428000313A000A00B162A00008316031306145A
:1004380086140615811307309500073096000130A1
:1004480093009417831203131408F03908389400A2
:1004580094168C118B150B100C13831603130C17A1
:100468000B178B170800F3007308831203178D000E
:1004780070088C00831603178C130C158B135530DA
:100488008D00AA308D008C140430F2003D30F1004C
:10049800F10B4C2AF20B4C2A512A831603170C1124
:1004A8000B108B170800F0007008831203178D00DB
:1004B800831603178C130C14831203170C080800F7
:1004C80083120313A000200893000A128A118122C4
:1004D8000A128A1108008316031311150A128A11C9
:1004E80081220A128A1108008316031311140A12B2
:1004F8008A1181220A128A110800831203138C1DA3
:0A050800862A872A812A8C11080038
:08400000FF3FFF3FFF3FFF3FC0
:04400E00D420FF3F7C
:00000001FF
