:060000000A128A110C280F
:10000800FE00030EF6000A08F7000A128A111928E2
:100018000A128A110F28F801F901FA01FB01FC0103
:10002800FD0183010A128A114E290B1C1C281D2868
:10003800F7288312031306182228232827280130BB
:10004800F4007408FD0703307D02031C2C282D28BA
:100058002E28FD017D08031D322833289128881792
:1000680008138812861839283A2862287C08F40070
:100078007408F00001300A128A1190220A128A11BB
:100088007B08F4007408F00002300A128A119022EA
:100098000A128A117A08F4007408F00003300A1270
:1000A8008A1190220A128A117908F4007408F00063
:1000B80004300A128A1190220A128A118312031339
:1000C800061967286828F5287C08F4007408F000E9
:1000D80005300A128A1190220A128A117B08F4004C
:1000E8007408F00006300A128A1190220A128A1146
:1000F8007A08F4007408F00007300A128A11902276
:100108000A128A117908F4007408F00008300A12FB
:100118008A1190220A128A11F5287D03031D952859
:100128009628EC2888130817881286189C289D287A
:10013800C12801300A128A11C2220A128A11F40057
:100148007408FC0002300A128A11C2220A128A11AB
:10015800F4007408FB0003300A128A11C2220A1242
:100168008A11F4007408FA0004300A128A11C222B3
:100178000A128A11F4007408F9008312031306198D
:10018800C628C728F52805300A128A11C2220A1281
:100198008A11F4007408FC0006300A128A11C2227F
:1001A8000A128A11F4007408FB0007300A128A1137
:1001B800C2220A128A11F4007408FA0008300A12DE
:1001C8008A11C2220A128A11F4007408F900F5286B
:1001D80002307D06031DF128F228F528881308133C
:1001E80088160B104729831203130C1FFC28FD28BF
:1001F80047297D08031D0129022946291F0CF400FF
:10020800740C0F39003A031D0A290B2913291E08FB
:10021800F4000310740CF5007508FC0046291F0C47
:10022800F400740C0F39013A031D1B291C292429D9
:100238001E08F4000310740CF5007508FB0046292D
:100248001F0CF400740C0F39023A031D2C292D29B8
:1002580035291E08F4000310740CF5007508FA001F
:1002680046291F0CF400740C0F39033A031D3D296D
:100278003E2946291E08F4000310740CF500750881
:10028800F90046290C1377088A00760E8300FE0EC3
:100298007E0E09000A128A113D220A128A1183125F
:1002A80003139F185829592999291F0CA300230CB7
:1002B8000F39003A031D6129622967291F08C339CC
:1002C80004389F008F291F0CA300230C0F39013A13
:1002D800031D6F29702975291F08C33908389F0025
:1002E8008F291F0CA300230C0F39023A031D7D2907
:1002F8007E2983291F08C3390C389F008F291F0CBA
:10030800A300230C0F39033A031D8B298C298F294D
:10031800C3309F058F29023083120313A300A30B58
:1003280093290000831203139F141030A30023089D
:10033800F8000A128A11E3220A128A1110300A12EE
:100348008A11CF220A128A117C0883120313A30090
:1003580023070A128A11CF220A128A110A128A1155
:10036800DA220A128A11043083120313A4003D30E2
:10037800A300A30BBD29A40BBD29103083120313BE
:10038800A3002308F8000A128A11E3220A128A112C
:1003980010300A128A11CF220A128A1103147B0D17
:1003A8000A128A11CF220A128A110A128A11DA2233
:1003B8000A128A11043083120313A4003D30A300EB
:1003C800A30BE429A40BE429123083120313A3001E
:1003D8002308F8000A128A11E3220A128A1112303D
:1003E8000A128A11CF220A128A117A088312031379
:1003F800A30023070A128A11CF220A128A110A12AD
:100408008A11DA220A128A11043083120313A40013
:100418003D30A300A30B0E2AA40B0E2A1230831220
:100428000313A3002308F8000A128A11E3220A1210
:100438008A1112300A128A11CF220A128A11031461
:10044800790D0A128A11CF220A128A110A128A1108
:10045800DA220A128A11043083120313A4003D30F1
:10046800A300A30B352AA40B352A53290A128A1193
:100478000C280F308316031788008901831603138D
:100488000F088F3940388F000F140F308500831202
:10049800031385018701183083160313870083121D
:1004A800031388018316031388013F308312031353
:1004B8009F05831603131F129F12C3308312031361
:1004C8009F05831603139F13831203131F1402300F
:1004D80083120313A000A00B6F2A000083160313D6
:1004E8000614861406158113073095000730960008
:1004F800013093009417831203131408F039083855
:10050800940094168C118B150B100C13831603137F
:100518000C170B178B170800F300730883120317C7
:100528008D0070088C00831603178C130C158B1321
:1005380055308D00AA308D008C140430F2003D3007
:10054800F100F10BA52AF20BA52AAA2A8316031794
:100558000C110B108B170800831203138C1DB52A7E
:10056800B62AB02A8C11043083120313A1003D303F
:10057800A000A00BBD2AA10BBD2A0800F00070083E
:10058800831203178D00831603178C130C14831220
:1005980003170C08080083120313A2002208930013
:1005A8000A128A11B0220A128A110800831603134C
:1005B80011150A128A11B0220A128A11080083162C
:1005C800031311140A128A11B0220A128A110800A0
:08400000FF3FFF3FFF3FFF3FC0
:04400E00D420FF3F7C
:00000001FF
