:060000000A128A11142906
:10000800F000030EF1000B1820200B1912200C1819
:100018001920710E8300F00E700E0900031383126D
:10002800FE3081000B118521080085308F00EE30ED
:100038008E000C10A00A080003138312061DA60ADE
:060048000B100D22080060
:100200008A010A140F39820703349F3425340D34D0
:100210009934493441341F34013409341134C13420
:1002200063348534613471342221412148215521C0
:1002300063210313831278210322A221BB21D4213D
:10024000F1211B29031783168801890103138316E3
:10025000870185018901081088100811881106148A
:10026000861406158113151495141515031383129E
:100270008501870188018901A601A001A101A301CF
:100280000800031383160F178F120F120F140800A4
:1002900003138316811281110115811401140313B4
:1002A0008312FE3081000B11080003138312101318
:1002B0009016101690119010101485308F00EE30AB
:1002C0008E000C100800031383160C1403138316FE
:1002D00016149614161503138312060803138312BB
:1002E0000B178B178B150B100B118B160C100800AE
:1002F00028080021AC0029080021AD002A080021AF
:10030000AE002B080021AF0008008801A71C8E2931
:10031000271C9329271D9829A71D9D292C08870094
:100320000814A71408002D08870088142714080053
:1003300027152E08870008150800A7012F08870039
:10034000881508002008A5003C30A502031CAA2936
:10035000A001A10A0318A4293C30A5072108A50083
:100360000A30A502031CB629A101A20A0318B0296C
:100370000A30A50708002208A5000630A502031CC4
:10038000C329A201A30A0318BD290630A507230823
:10039000A5000A30A502031CCF29A301A40A031853
:1003A000C9290A30A50708002408A5000230A502C3
:1003B0000318DD290230A50708002308A500043032
:1003C000A5020318E6210430A5070800A001A10139
:1003D000A301A101A201A401A801A901AA01AB01E5
:1003E00008002108A500FF30A502031C002AE62111
:1003F0000230A4070330A3070530A2070930A10784
:10040000FF30A50708002108A8002208A90023083A
:10041000AA002408AB00080008002608013C0319C4
:10042000282A2608023C03191D2A2608033C031922
:10043000A60109108910091108000313831209107D
:1004400089140911061CA30A861CA3030B100800BB
:1004500003138312091489100911061CA10A861CB2
:06046000A1030B100800CF
:04400E00D420FF3F7C
:00000001FF
