:060000000A128A110C280F
:10000800FE00030EFA000A08FB000A128A118C2867
:100018000A128A110F28F001F101F201F301F4012B
:10002800F501F601F701F80183010A128A11F52892
:1000380003308316031788008901831603130F08FA
:100048008F3940388F000F14033085008312031353
:10005800850187018316031387018312031388011F
:1000680083160313880189018312031389013F3022
:100078009F05831603131F129F12C33083120313A5
:100088009F05831603139F13831203131F14033052
:10009800FC00FC0B4D2883160313071587149B30AF
:1000A80092008312031397019D013F3097051708AB
:1000B800F0390C3897001D08F0390C389D001F30B6
:1000C80095001708CF39103897001F309B001D1670
:1000D8009D168C100330920412158C1C74287528F8
:1000E80071288C10831603130711871006148614C1
:1000F800811303309500033096008B150B10831283
:1001080003130C13831603130C170B178B17080014
:100118000B1C8F289028A32804307806031D9528E7
:1001280096289728F8018312031306189C289D28FF
:10013800A1280130F9007908F8070B10EE28780893
:10014800031DA728A828BC288312031388010914B3
:10015800891009110B1CB128B228EE288618B52879
:10016800B628BA280130F900790888070B10EE285C
:100178007803031DC028C128D2288312031309104D
:10018800891409110B1CC928CA28EE288618CD28FD
:10019800CE28D028013088020B10EE2803307806CC
:1001A800031DD728D828EE288312031309108910B5
:1001B80009150C1FE028E128EE281F0CF900790C1E
:1001C8000F39003A031DE928EA28EC281E088800A0
:1001D8000C13EE287B088A007A0E8300FE0E7E0E32
:1001E80009000A128A111C200A128A1183120313A9
:1001F8009F18FF280029FA289F14FA280A128A1142
:020208000C28C0
:08400000FF3FFF3FFF3FFF3FC0
:04400E00D420FF3F7C
:00000001FF
