:060000000A128A11142906
:10000800F000030EF1000B1817200B191020710EC9
:100018008300F00E700E090003138312FE30810076
:100028000B117321080003138312061DA50A9921D9
:040038000B100800A1
:100200008A010A140F39820703349F3425340D34D0
:100210009934493441341F34013409341134C13420
:1002200063348534613471341E21422149215621C1
:100230000313831266219021BF211A290317831605
:10024000880189010313831687018501890108103C
:1002500088100811881106148614061581131514C8
:1002600095141515031383128501870188018901EF
:10027000A501A301A301A201A0010130A207013041
:10028000A0070800031383160F178F120F120F1405
:1002900008000313831681128111011581140114C2
:1002A00003138312FE3081000B1108000313831621
:1002B00016149614161503138312060803138312DB
:1002C0008B178B150B100B118B16080027080021BC
:1002D000AB0028080021AC0029080021AD002A0845
:1002E0000021AE0008008801A61C7C29261C81295B
:1002F000261D8629A61D8B292B0887000814A61405
:1003000008002C08870088142614080026152D08DC
:10031000870008150800A6012E0887008815080028
:100320002208A7002308A8002008A9002108AA0085
:1003300008002508013C0319A9292508023C0319D6
:10034000B4292508033C0319A501091089100911D6
:10035000080003138312091089140911061CA00A4E
:10036000861CA0030B1008000313831209148910C4
:100370000911061CA20A861CA2030B100800200803
:10038000A4000A30A402031DC729A001A10A220863
:10039000A4000A30A402031DCF29A201A30A080069
:0203A000080053
:04400E00D420FF3F7C
:00000001FF
